:100000000C9463000C948B000C948B000C948B006C
:100010000C948B000C948B000C948B000C948B0034
:100020000C948B000C948B000C948B000C948B0024
:100030000C948B000C948B000C948B000C948B0014
:100040000C945F030C948B000C948B000C948B002D
:100050000C948B000C948B000C948B000C948B00F4
:100060000C948B000C948B000000000023002600F1
:10007000290000000008000201000003040700003E
:1000800000000000000000000000250028002B00F8
:1000900000000000240027002A00040404040404D3
:1000A0000404020202020202030303030303010227
:1000B00004081020408001020408102001020408F6
:1000C0001020E3054A0611241FBECFEFD8E0DEBFA3
:1000D000CDBF11E0A0E0B1E0EEE8F3E102C0059091
:1000E0000D92A631B107D9F721E0A6E1B1E001C038
:1000F0001D92AD36B207E1F710E0C2E6D0E004C0D1
:100100002197FE010E94B907C136D107C9F70E94A5
:10011000A9030C94BA090C94000090E0FC01E2558C
:10012000FF4F249186569F4FFC018491882399F0BC
:1001300090E0880F991FFC01E057FF4FA591B49103
:10014000FC01EA57FF4F859194918FB7F894EC9199
:10015000E22BEC938FBF0895833081F028F4813037
:1001600099F08230A9F008958730A9F08830C9F05D
:100170008430B1F4809180008F7D03C08091800035
:100180008F7780938000089584B58F7784BD08951C
:1001900084B58F7DFBCF8091B0008F778093B000C6
:1001A00008958091B0008F7DF9CF1F93CF93DF9397
:1001B000282F30E0F901EE58FF4F8491F901E25504
:1001C000FF4FD491F901E656FF4FC491CC23A9F01B
:1001D000162F81110E94AC00EC2FF0E0EE0FFF1FF4
:1001E000EA57FF4FA591B4918FB7F894EC91111194
:1001F00008C0D095DE23DC938FBFDF91CF911F9194
:100200000895DE2BF8CFCF93DF93CFE2D1E060E00B
:100210008A810E94D5001AA260E08C810E94D500DC
:100220001BA260E08E810E94D5001CA2DF91CF91BD
:1002300008953FB7F89480911F0190912001A091FB
:100240002101B091220126B5A89B05C02F3F19F0CE
:100250000196A11DB11D3FBFBA2FA92F982F882746
:10026000BC01CD01620F711D811D911D42E0660F21
:10027000771F881F991F4A95D1F708958F929F92F3
:10028000AF92BF92CF92DF92EF92FF924B015C014F
:100290000E9419016B017C010E9419016C197D09F2
:1002A0008E099F09683E734081059105A8F321E0FE
:1002B000821A9108A108B10888EEC80E83E0D81E02
:1002C000E11CF11C81149104A104B10429F7FF90F1
:1002D000EF90DF90CF90BF90AF909F908F90089558
:1002E0002FB7F89460911B0170911C0180911D0142
:1002F00090911E012FBF08954F925F926F927F924F
:10030000BF92CF92DF92EF92FF920F931F93CF9302
:10031000DF93CFE2D1E07E0110E000E0BB24B39494
:100320008DA1882311F10E947001F701C0A4D1A40E
:10033000F801E15DFE4F4784508861887288641936
:10034000750986099709F70126A537A52C0D3D1DCE
:1003500050E040E00E9460072601712C612C64157A
:1003600075058605970548F5BAA22196F2E0EF0ECD
:10037000F11C0C5F1F4F0C30110591F6609151017B
:10038000809131010E94D50060915201809133012A
:100390000E94D5006091530180913501DF91CF918A
:1003A0001F910F91FF90EF90DF90CF90BF907F90C3
:1003B0006F905F904F900C94D5001AA2D6CF0F93F8
:1003C0001F93CF93DF9300D000D000D0CDB7DEB71E
:1003D0008C010E9403011A8219821C821B821E82D8
:1003E0001D82FE0131961016110644F4C801817079
:1003F00099278193919315950795F5CF11E0898100
:100400009A81892B09F410E0612F809135010E94B7
:10041000D5001093530111E08B819C81892B09F445
:1004200010E0612F809133010E94D500109352019A
:1004300011E08D819E81892B09F410E0612F80915C
:1004400031010E94D5001093510126960FB6F89401
:10045000DEBF0FBECDBFDF91CF911F910F910895E9
:10046000CF93DF93EC018091630190916401009739
:1004700059F020916501309166012C173D0720F05D
:1004800081E0DF91CF910895BE016F5F7F4F0E94A1
:10049000E408009789F09093640180936301D093FE
:1004A0006601C09365012091670130916801232B9B
:1004B00039F7FC011082E4CF80E0E3CF0F931F9364
:1004C000CF93DF938C01EC0109900020E9F721978D
:1004D000C81BD90BCE010E943002209163013091DC
:1004E0006401811117C02115310519F0C9010E945D
:1004F0005B081092640110926301109268011092DF
:1005000067011092660110926501DF91CF911F91F2
:100510000F910895D0936801C0936701B801C90194
:10052000DF91CF911F910F910C94B309CF92DF927D
:10053000EF92FF920E949F0626E030E040E050E0FC
:100540000E94F706AB01BC014F5F5F4F6F4F7F4FBB
:10055000509319014093180187E090E0841B950B9C
:100560006C01092E000CEE08FF08019709F45BC02E
:100570000E949F06A70196012150310941095109A6
:100580000E94F706DC01CB010196A11DB11D9093DD
:100590001701809316012091180130911901820FE3
:1005A000931F9093240180932301909326018093BD
:1005B0002501909328018093270197E0C92ED12C23
:1005C000E12CF12C2091250130912601809123010D
:1005D000909124012817390759F187E0C82ED12CB2
:1005E000E12CF12C80912701909128012091230189
:1005F000309124018217930739F020912501309121
:1006000026018217930719F50E949F06A7019601FC
:100610000E94F7066F5F7F4F8F4F9F4F70932801A7
:1006200060932701DFCF81E090E0A0E0B0E0AFCFA2
:100630000E949F06A70196010E94F7066F5F7F4FF9
:100640008F4F9F4F7093260160932501BBCF0E946F
:100650009F0623E030E040E050E00E94F7067093F0
:100660002A016093290180911801909119010E943B
:10067000DF0160E476E080E090E00E943E010E94AD
:10068000030160E971E080E090E00E943E0180910A
:100690001601909117010E94DF0160E476E080E08E
:1006A00090E00E943E010E94030160ED77E080E04F
:1006B00090E0FF90EF90DF90CF900C943E011F925E
:1006C0000F920FB60F9211242F933F938F939F9306
:1006D000AF93BF9380911B0190911C01A0911D01CC
:1006E000B0911E0130911A0123E0230F2D3758F5E8
:1006F0000196A11DB11D20931A0180931B019093B7
:100700001C01A0931D01B0931E0180911F019091C7
:100710002001A0912101B09122010196A11DB11DDE
:1007200080931F0190932001A0932101B093220197
:10073000BF91AF919F918F913F912F910F900FBEDD
:100740000F901F90189526E8230F0296A11DB11D4A
:10075000D2CF789484B5826084BD84B5816084BD35
:1007600085B5826085BD85B5816085BD80916E004F
:10077000816080936E001092810080918100826080
:1007800080938100809181008160809381008091BD
:1007900080008160809380008091B10084608093AC
:1007A000B1008091B00081608093B00080917A00A8
:1007B000846080937A0080917A00826080937A00CE
:1007C00080917A00816080937A0080917A008068BD
:1007D00080937A001092C10080E480937C00809125
:1007E0007A00806480937A0080917A0086FDFCCF45
:1007F0008091780060917900762F682F072E000C89
:10080000880B990B611571058105910511F00E9406
:10081000EE060E94960243E0C42ED12C50E0E52E55
:1008200050E0F52EBB24B394CEE1D0E004E610E016
:100830000E94700140902B0150902C0160902D017E
:1008400070902E016419750986099709693E7340F5
:100850008105910580F18091670190916801892B54
:1008600051F16AE071E080916301909164010E940E
:10087000AA09892B01F58091290190912A010196FD
:10088000B6010E9491074C0190932A01809329019F
:100890000E94700160932B0170932C0180932D01B5
:1008A00090932E01F401EE0FFF1FED5DFE4F80814E
:1008B00091810E94DF0180914B01882309F47DC062
:1008C0008091670190916801892B09F476C06AE0F4
:1008D00071E080916301909164010E94AA09892BC3
:1008E00009F06BC08091290190912A01892B09F0B0
:1008F00009C10E9403012AE0822E912CB09254017A
:10090000109358010093570110935E0100935D010D
:100910000E94700160933E0170933F0180934001FB
:10092000909341010E947C0161E270E080E090E0E0
:100930000E943E01B092550110935A010093590153
:100940001093600100935F010E9470016093420167
:100950007093430180934401909345010E947C0170
:1009600061E270E080E090E00E943E01B0925601AA
:1009700010935C0100935B0110936201009361018D
:100980000E94700160934601709347018093480173
:100990009093490181E0881A910809F0AFCF8DE06A
:1009A00091E00E945E020E94700160932B0170939F
:1009B0002C0180932D0190932E01809167019091DD
:1009C0006801892B89F16DE071E08091630190915C
:1009D00064010E94AA09892B39F50E947001605DAB
:1009E00077408109910940902B0150902C01609033
:1009F0002D0170902E014616570668067906A0F460
:100A00001092540110925501109256010E94030158
:100A10008AE091E00E945E0268EE73E080E090E080
:100A20000E943E010E94960210924C0110924B01CE
:100A300010924D0110924E0110924F0110925001F0
:100A400040902F0150903001052C000C660877086B
:100A500080913A0190913B01A0913C01B0913D0100
:100A6000480E591E6A1E7B1E0E94700146165706CC
:100A70006806790630F52091370130913801332727
:100A8000F901EE58FF4F8491F901E255FF4FA49010
:100A9000F901E656FF4F9490992079F081110E9458
:100AA000AC00E92DF0E0EE0FFF1FE859FF4FA591D4
:100AB000B491EC91AE2281E009F480E081708093E2
:100AC00039018091390190914A01911160C08823C8
:100AD00061F0B0924B010E94700160933A017093F3
:100AE0003B0180933C0190933D01809139018093BB
:100AF0004A010E947C01E114F10409F499CE0E949C
:100B0000000096CE94E1892E912CB0925401D0939E
:100B10005801C0935701D0935E01C0935D010E94BC
:100B2000700160933E0170933F0180934001909368
:100B30004101B0925501D0935A01C0935901D0930D
:100B40006001C0935F010E94700160934201709345
:100B500043018093440190934501B0925601D09394
:100B60005C01C0935B01D0936201C09361010E945C
:100B70007001609346017093470180934801909300
:100B8000490121E0821A910809F0BFCF08CF8823DC
:100B9000B9F00E94700140903A0150903B01609082
:100BA0003C0170903D0164197509860997096093AD
:100BB0004D0170934E0180934F019093500195CF5A
:100BC000B0924C0192CFCF93DF9383E00E948D00CF
:100BD00082E00E948D0084E00E948D0083E090E01E
:100BE0009093320180933101C2E0D0E0D093340180
:100BF000C093330184E090E09093360180933501F7
:100C000085E090E090933801809337018FE090E089
:100C10009093300180932F0110923A0110923B0182
:100C200010923C0110923D011092640110926301F8
:100C3000109266011092650110926801109267018E
:100C400082E090E00E9430022091630130916401C3
:100C5000811115C02115310519F0C9010E945B08E9
:100C60001092640110926301109268011092670162
:100C70001092660110926501DF91CF910895D09393
:100C80006801C09367016AE071E0C901DF91CF910B
:100C90000C94B3098091630190916401009711F065
:100CA0000C945B0808958F929F92AF92BF92CF925F
:100CB000DF92EF92FF92CF93DF93EC01688179810D
:100CC0008A819B81611571058105910521F464E29A
:100CD00079ED8BE597E02DE133EF41E050E00E94A4
:100CE000F70649015A019B01AC01A7EAB1E40E9451
:100CF00016076B017C01ACEEB4EFA50194010E94D4
:100D00002407C60ED71EE81EF91EF7FE06C081E0B6
:100D1000C81AD108E10880E8F80AC882D982EA82B4
:100D2000FB82C701B6019F77DF91CF91FF90EF90D3
:100D3000DF90CF90BF90AF909F908F9008958F924B
:100D40009F92AF92BF92CF92DF92EF92FF9260910B
:100D500000017091010180910201909103016115E0
:100D600071058105910521F464E279ED8BE597E049
:100D70002DE133EF41E050E00E94F70649015A01AE
:100D80009B01AC01A7EAB1E40E9416076B017C014C
:100D9000ACEEB4EFA50194010E942407C60ED71E45
:100DA000E81EF91EF7FE06C081E0C81AD108E10866
:100DB00080E8F80AC0920001D0920101E09202019D
:100DC000F0920301C701B6019F77FF90EF90DF908B
:100DD000CF90BF90AF909F908F9008956093000147
:100DE0007093010180930201909303010895052EF1
:100DF00097FB1EF400940E940E0757FD07D00E9437
:100E0000600707FC03D04EF40C940E0750954095F4
:100E1000309521953F4F4F4F5F4F089590958095A6
:100E2000709561957F4F8F4F9F4F08950E94820765
:100E3000A59F900DB49F900DA49F800D911D11242E
:100E40000895B7FF0C9416070E941607821B930B98
:100E500008952F923F924F925F926F927F928F925E
:100E60009F92AF92BF92CF92DF92EF92FF920F9339
:100E70001F93CF93DF93CDB7DEB7CA1BDB0B0FB643
:100E8000F894DEBF0FBECDBF09942A883988488800
:100E90005F846E847D848C849B84AA84B984C88496
:100EA000DF80EE80FD800C811B81AA81B981CE0F8D
:100EB000D11D0FB6F894DEBF0FBECDBFED01089572
:100EC000A1E21A2EAA1BBB1BFD010DC0AA1FBB1F4E
:100ED000EE1FFF1FA217B307E407F50720F0A21BC0
:100EE000B30BE40BF50B661F771F881F991F1A942D
:100EF00069F760957095809590959B01AC01BD0157
:100F0000CF010895A29FB001B39FC001A39F700DB0
:100F1000811D1124911DB29F700D811D1124911D01
:100F2000089597FB072E16F4009407D077FD09D09B
:100F30000E94A50707FC05D03EF4909581959F4F30
:100F40000895709561957F4F0895AA1BBB1B51E1D1
:100F500007C0AA1FBB1FA617B70710F0A61BB70B29
:100F6000881F991F5A95A9F780959095BC01CD01CE
:100F70000895EE0FFF1F0590F491E02D09940F9353
:100F80001F93CF93DF938230910510F482E090E0BD
:100F9000E0916B01F0916C0130E020E0B0E0A0E066
:100FA000309799F42115310509F44AC0281B390BF3
:100FB00024303105D8F58A819B816115710589F14D
:100FC000FB0193838283FE0111C040815181028124
:100FD000138148175907E0F04817590799F41097FB
:100FE00061F012960C93129713961C933296CF01D0
:100FF000DF91CF911F910F91089500936B01109392
:101000006C01F4CF2115310551F04217530738F028
:10101000A901DB019A01BD01DF01F801C1CFEF0198
:10102000F9CF90936C0180936B01CDCFFE01E20F5D
:10103000F31F819391932250310939832883D7CFAD
:101040002091690130916A01232B41F4209106011E
:101050003091070130936A012093690120910401C6
:10106000309105012115310541F42DB73EB740916E
:10107000080150910901241B350BE0916901F091A1
:101080006A01E217F307A0F42E1B3F0B281739075C
:1010900078F0AC014E5F5F4F2417350748F04E0FD4
:1010A0005F1F50936A0140936901819391939FCF91
:1010B000F0E0E0E09CCFCF93DF930097E9F0FC01F4
:1010C000329713821282A0916B01B0916C01ED01F5
:1010D00030E020E01097A1F420813181820F931F2E
:1010E0002091690130916A012817390709F061C020
:1010F000F0936A01E0936901DF91CF910895EA01CD
:10110000CE17DF07E8F54A815B819E014115510545
:10111000B1F7E901FB83EA8349915991C40FD51FC7
:10112000EC17FD0761F4808191810296840F951F71
:10113000E90199838883828193819B838A83F0E08C
:10114000E0E012968D919C9113970097B9F52D913F
:101150003C911197CD010296820F931F2091690156
:1011600030916A012817390739F6309751F51092F6
:101170006C0110926B01B0936A01A0936901BCCF1E
:10118000D383C28340815181840F951FC817D9072B
:1011900061F44E5F5F4F88819981480F591F5183D9
:1011A00040838A819B81938382832115310509F0D5
:1011B000B0CFF0936C01E0936B019ECFFD01DC0199
:1011C000C0CF13821282D7CFB0E0A0E0EAEEF8E001
:1011D0000C942B078C01009751F4CB010E94BF07A0
:1011E0008C01C801CDB7DEB7E0E10C944707FC01E4
:1011F000E60FF71F9C0122503109E217F30708F4AC
:101200009DC0D901CD91DC911197C617D70798F0F1
:10121000C530D10530F3CE0104978617970708F340
:10122000C61BD70B2297C193D1936D937C93CF01AB
:101230000E945B08D6CF5B01AC1ABD0A4C018C0E34
:101240009D1EA0916B01B0916C01512C412CF12C91
:10125000E12C109731F58091690190916A01881510
:10126000990509F05CC04616570608F058C08091F1
:10127000040190910501009741F48DB79EB740910C
:10128000080150910901841B950BE817F90708F034
:1012900055C0F0936A01E0936901F901718360839D
:1012A000A0CF8D919C91119712966C9012971396E6
:1012B0007C901397A815B90559F56C0142E0C40E4E
:1012C000D11CCA14DB0420F1AC014A195B09DA0114
:1012D0001296159780F06282738251834083D90100
:1012E0006D937C93E114F10471F0D7011396FC9394
:1012F000EE93129776CF22968C0F9D1FF901918362
:101300008083F301EFCFF0936C01E0936B0169CF21
:101310004816590608F42C017D01D3019ACFCB0160
:101320000E94BF077C01009749F0AE01B8010E94FE
:10133000A109C8010E945B08870153CF10E000E0BB
:1013400050CFFB01DC0102C001900D924150504092
:10135000D8F70895FB01DC018D91019080190110EF
:10136000D9F3990B0895FB01DC0101900D92002047
:10137000E1F7089510E0C2E6D0E004C0FE010E944B
:0E138000B9072196C336D107C9F7F894FFCFFD
:10138E000100000000006D0180006F6E0077616942
:06139E0074696E67000097
:00000001FF
