:100000000C9463000C948B000C948B000C948B006C
:100010000C948B000C948B000C948B000C948B0034
:100020000C948B000C948B000C948B000C948B0024
:100030000C948B000C948B000C948B000C948B0014
:100040000C9432030C948B000C9400030C94DA0291
:100050000C948B000C948B000C948B000C948B00F4
:100060000C948B000C948B000000000023002600F1
:10007000290000000008000201000003040700003E
:1000800000000000000000000000250028002B00F8
:1000900000000000240027002A00040404040404D3
:1000A0000404020202020202030303030303010227
:1000B00004081020408001020408102001020408F6
:1000C00010207C03A20611241FBECFEFD8E0DEBFB4
:1000D000CDBF11E0A0E0B1E0EEEEF3E102C005908B
:1000E0000D92A435B107D9F722E0A4E5B1E001C033
:1000F0001D92AC33B207E1F710E0C2E6D0E004C0D5
:100100002197FE010E94E907C136D107C9F70E9475
:1001100025040C94EA090C94000090E0FC01E255DF
:10012000FF4F249186569F4FFC018491882399F0BC
:1001300090E0880F991FFC01E057FF4FA591B49103
:10014000FC01EA57FF4F859194918FB7F894EC9199
:10015000E22BEC938FBF0895AF92BF92CF92DF92C4
:10016000EF92FF920F931F93CF93DF936C017B016C
:100170008B01040F151FEB015E01AE18BF08C017FD
:10018000D10759F06991D601ED91FC910190F08170
:10019000E02DC6010995892B79F7C501DF91CF9133
:1001A0001F910F91FF90EF90DF90CF90BF90AF9095
:1001B0000895FC01538D448D252F30E0842F90E06D
:1001C000821B930B541710F0CF9608950197089552
:1001D000FC01918D828D981761F0A28DAE0FBF2F1B
:1001E000B11D5D968C91928D9F5F9F73928F90E071
:1001F00008958FEF9FEF0895FC01918D828D9817E0
:1002000031F0828DE80FF11D858D90E008958FEF1C
:100210009FEF0895FC01918D228D892F90E0805CE5
:100220009F4F821B91098F739927089581E691E072
:100230000E940A0121E0892B09F420E0822F089511
:1002400080E090E0892B29F00E94160181110C9426
:1002500000000895FC01A48DA80FB92FB11DA35A69
:10026000BF4F2C91848D90E001968F739927848FD6
:10027000A689B7892C93A089B1898C9183708064F9
:100280008C93938D848D981306C00288F389E02D9A
:1002900080818F7D80830895EF92FF920F931F934B
:1002A000CF93DF93EC0181E0888F9B8D8C8D981329
:1002B0001AC0E889F989808185FF15C09FB7F89435
:1002C000EE89FF896083E889F98980818370806481
:1002D00080839FBF81E090E0DF91CF911F910F91CC
:1002E000FF90EF900895F62E0B8D10E00F5F1F4FDB
:1002F0000F731127E02E8C8D8E110CC00FB607FCEA
:10030000FACFE889F989808185FFF5CFCE010E9477
:100310002A01F1CFEB8DEC0FFD2FF11DE35AFF4FBA
:10032000F0829FB7F8940B8FEA89FB898081806205
:10033000CFCFCF93DF93EC01888D8823B9F0AA89C2
:10034000BB89E889F9898C9185FD03C0808186FD90
:100350000DC00FB607FCF7CF8C9185FFF2CF8081DF
:1003600085FFEDCFCE010E942A01E9CFDF91CF9129
:100370000895833081F028F4813099F08230A9F01B
:1003800008958730A9F08830C9F08430B1F48091A5
:1003900080008F7D03C0809180008F7780938000E4
:1003A000089584B58F7784BD089584B58F7DFBCF84
:1003B0008091B0008F778093B00008958091B00055
:1003C0008F7DF9CF1F93CF93DF93282F30E0F90172
:1003D000EE58FF4F8491F901E255FF4FD491F90196
:1003E000E656FF4FC491CC23A9F0162F81110E942D
:1003F000B901EC2FF0E0EE0FFF1FEA57FF4FA59178
:10040000B4918FB7F894EC91111108C0D095DE2308
:10041000DC938FBFDF91CF911F910895DE2BF8CF32
:10042000CF93DF93C4E0D2E060E08A810E94E201D2
:100430001AA260E08C810E94E2011BA260E08E8122
:100440000E94E2011CA2DF91CF9108953FB7F8947A
:100450008091590190915A01A0915B01B0915C018A
:1004600026B5A89B05C02F3F19F00196A11DB11D0F
:100470003FBFBA2FA92F982F8827BC01CD01620F4B
:10048000711D811D911D42E0660F771F881F991F06
:100490004A95D1F708952FB7F8946091550170915E
:1004A000560180915701909158012FBF0895CF9325
:1004B000DF93FC0101900020E9F73197AF01481B61
:1004C000590BBC0181E691E00E94AC00EC0142E0D6
:1004D00050E06CE171E081E691E00E94AC008C0F8D
:1004E0009D1FDF91CF910895CF93DF93EC01809111
:1004F000FE019091FF01009759F020910002309188
:1005000001022C173D0720F081E0DF91CF91089583
:10051000BE016F5F7F4F0E941409009789F090938E
:10052000FF018093FE01D0930102C093000220914D
:10053000020230910302232B39F7FC011082E4CF31
:1005400080E0E3CF0F931F93CF93DF938C01EC01F7
:1005500009900020E9F72197C81BD90BCE010E9412
:1005600074022091FE013091FF01811117C0211505
:10057000310519F0C9010E948B081092FF011092F9
:10058000FE011092030210920202109201021092D8
:100590000002DF91CF911F910F910895D093030234
:1005A000C0930202B801C901DF91CF911F910F9151
:1005B0000C94E3091F920F920FB60F9211242F9300
:1005C0003F934F935F936F937F938F939F93AF93DB
:1005D000BF93EF93FF9381E691E00E942A01FF9180
:1005E000EF91BF91AF919F918F917F916F915F91AB
:1005F0004F913F912F910F900FBE0F901F90189524
:100600001F920F920FB60F9211242F938F939F93E7
:10061000EF93FF93E0917101F09172018081E0917D
:100620007701F091780182FD1BC0908180917A0161
:100630008F5F8F7320917B01821741F0E0917A01E7
:10064000F0E0EF59FE4F958F80937A01FF91EF9183
:100650009F918F912F910F900FBE0F901F90189523
:100660008081F4CF1F920F920FB60F9211242F9317
:100670003F938F939F93AF93BF9380915501909138
:100680005601A0915701B09158013091540123E0D7
:10069000230F2D3758F50196A11DB11D209354014C
:1006A0008093550190935601A0935701B093580140
:1006B0008091590190915A01A0915B01B0915C0128
:1006C0000196A11DB11D8093590190935A01A093E9
:1006D0005B01B0935C01BF91AF919F918F913F916E
:1006E0002F910F900FBE0F901F90189526E8230FA3
:1006F0000296A11DB11DD2CFCF93DF93109264015A
:100700001092630188EE93E0A0E0B0E08093650171
:1007100090936601A0936701B09368018EE091E029
:10072000909362018093610185EC90E090936E015B
:1007300080936D0184EC90E09093700180936F0141
:1007400080EC90E0909372018093710181EC90E0D5
:10075000909374018093730182EC90E09093760102
:100760008093750186EC90E09093780180937701F7
:1007700010927A0110927B0110927C0110927D01FF
:1007800083E00E948D0082E00E948D0084E00E9440
:100790008D0083E090E0909307028093060282E050
:1007A00090E09093090280930802C4E0D0E0D093D7
:1007B0000B02C0930A0285E090E090930D028093B3
:1007C0000C028FE090E09093050280930402109257
:1007D0000F02109210021092110210921202109247
:1007E000FF011092FE01109201021092000210927D
:1007F00003021092020284E090E00E9474022091B1
:10080000FE013091FF01811115C02115310519F04C
:10081000C9010E948B081092FF011092FE011092F4
:100820000302109202021092010210920002DF9164
:10083000CF910895D0930302C09302026FE171E05B
:10084000C901DF91CF910C94E309789484B582605B
:1008500084BD84B5816084BD85B5826085BD85B564
:10086000816085BD80916E00816080936E001092E2
:10087000810080918100826080938100809181005D
:1008800081608093810080918000816080938000EE
:100890008091B10084608093B1008091B00081604C
:1008A0008093B00080917A00846080937A00809178
:1008B0007A00826080937A0080917A0081608093D0
:1008C0007A0080917A00806880937A001092C1004B
:1008D000E0917101F091720182E08083E0916D01FD
:1008E000F0916E011082E0916F01F09170018FEC38
:1008F000808310927901E0917501F091760186E094
:100900008083E0917301F091740180818061808324
:10091000E0917301F0917401808188608083E0919F
:100920007301F0917401808180688083E09173018C
:10093000F091740180818F7D808380E480937C00BE
:1009400080917A00806480937A0080917A0086FD9D
:10095000FCCF8091780060917900762F682F072E68
:10096000000C880B990B611571058105910511F03B
:100970000E94460784E291E00E94570245E0442E1F
:10098000512C612C712CC1E004E610E050E0252EC2
:1009900050E0352E80E491E00E94570280910202DF
:1009A00090910302892B09F48CC065E471E0809179
:1009B000FE019091FF010E94DA09892BD9F489E4A4
:1009C00091E00E94570280912002882361F08FE11C
:1009D00091E00E94A2021092290210922A02109223
:1009E0002B020E9410028091020290910302892B37
:1009F00009F467C06FE171E08091FE019091FF0101
:100A00000E94DA09892B09F05CC08FE191E00E9415
:100A1000570280912002882309F43AC18DE491E0C5
:100A20000E94570280912602882309F409C180910F
:100A30002702882309F404C180912802882309F43D
:100A4000FFC0C093290210932D0200932C02109333
:100A50003302009332020E944B02609313027093A0
:100A600014028093150290931602C0932A021093E9
:100A70002F0200932E0210933502009334020E943D
:100A80004B0260931702709318028093190290939F
:100A90001A02C0932B02109331020093300210937C
:100AA0003702009336020E944B0260931B02709340
:100AB0001C0280931D0290931E0285E491E00E9427
:100AC000A202109221021092200210922202109291
:100AD00023021092240210922502C0900402D090AA
:100AE00005020D2C000CEE08FF0880910F0290917A
:100AF0001002A0911102B0911202C80ED91EEA1E76
:100B0000FB1E0E944B02C616D706E806F90630F512
:100B100020910C0230910D023327F901EE58FF4F5E
:100B20008491F901E255FF4FF490F901E656FF4F29
:100B3000E490EE2079F081110E94B901EE2DF0E0F1
:100B4000EE0FFF1FE859FF4FA591B491EC91FE22E3
:100B500081E009F480E0817080930E0280910E02A2
:100B600090911F029111D0C0882361F0C0932002A0
:100B70000E944B0260930F02709310028093110247
:100B80009093120280910E0280931F0284E0E82E5F
:100B900082E0F82E5701D12CC12CF70185A18823C2
:100BA00021F10E944B02F50180A491A4F601EC5FB3
:100BB000FD4F2785308941895289621B730B840B55
:100BC000950BF50126A537A5280D391D50E040E00D
:100BD0000E94B807940150E040E0F70162177307E4
:100BE0008407950708F0ACC0C2A3FFEFEF1AFF0A15
:100BF00022E0A20EB11C34E0C30ED11C8CE0C8165A
:100C0000D10459F660912602809106020E94E20109
:100C100060912702809108020E94E20160912802FF
:100C200080910A020E94E2012114310409F4B2CE3B
:100C30000E941601882309F4ADCE0E940000AACEBE
:100C40000E9410020E9426024B015C0134EFC32E69
:100C5000DD24D394E12CF12C0E9426026819790935
:100C60008A099B09683E734081059105A8F321E03C
:100C7000C21AD108E108F10838EE830E33E0931E62
:100C8000A11CB11CC114D104E104F10429F719CF4E
:100C90000E944B02C0905D01D0905E01E0905F0128
:100CA000F09060016C197D098E099F096536710508
:100CB0008105910508F405CF0E94F706A301920172
:100CC0000E944F0763307105A0F49B012C5F3D4FDC
:100CD0007901F901D2A0DC266F5F7F4F660F771F85
:100CE000FB01EC5FFD4F6D2D80810E94E201F70159
:100CF000D2A20E944B0260935D0170935E018093CB
:100D00005F0190936001DDCE8823B9F00E944B0211
:100D1000C0900F02D0901002E0901102F0901202E9
:100D20006C197D098E099F0960932202709323023A
:100D3000809324029093250225CFC093210222CFD5
:100D400012A253CF8091FE019091FF01009711F004
:100D50000C948B0808958F929F92AF92BF92CF927E
:100D6000DF92EF92FF92CF93DF93EC01688179815C
:100D70008A819B81611571058105910521F464E2E9
:100D800079ED8BE597E02DE133EF41E050E00E94F3
:100D90004F0749015A019B01AC01A7EAB1E40E9447
:100DA0006E076B017C01ACEEB4EFA50194010E94CB
:100DB0007C07C60ED71EE81EF91EF7FE06C081E0AE
:100DC000C81AD108E10880E8F80AC882D982EA8204
:100DD000FB82C701B6019F77DF91CF91FF90EF9023
:100DE000DF90CF90BF90AF909F908F9008958F929B
:100DF0009F92AF92BF92CF92DF92EF92FF9260915B
:100E0000000170910101809102019091030161152F
:100E100071058105910521F464E279ED8BE597E098
:100E20002DE133EF41E050E00E944F0749015A01A4
:100E30009B01AC01A7EAB1E40E946E076B017C0143
:100E4000ACEEB4EFA50194010E947C07C60ED71E3C
:100E5000E81EF91EF7FE06C081E0C81AD108E108B5
:100E600080E8F80AC0920001D0920101E0920201EC
:100E7000F0920301C701B6019F77FF90EF90DF90DA
:100E8000CF90BF90AF909F908F9008956093000196
:100E90007093010180930201909303010895052E40
:100EA00097FB1EF400940E94660757FD07D00E942E
:100EB000B80707FC03D04EF40C9466075095409594
:100EC000309521953F4F4F4F5F4F089590958095F6
:100ED000709561957F4F8F4F9F4F08950E94DA075D
:100EE000A59F900DB49F900DA49F800D911D11247E
:100EF0000895B7FF0C946E070E946E07821B930B38
:100F000008952F923F924F925F926F927F928F92AD
:100F10009F92AF92BF92CF92DF92EF92FF920F9388
:100F20001F93CF93DF93CDB7DEB7CA1BDB0B0FB692
:100F3000F894DEBF0FBECDBF09942A88398848884F
:100F40005F846E847D848C849B84AA84B984C884E5
:100F5000DF80EE80FD800C811B81AA81B981CE0FDC
:100F6000D11D0FB6F894DEBF0FBECDBFED010895C1
:100F7000A1E21A2EAA1BBB1BFD010DC0AA1FBB1F9D
:100F8000EE1FFF1FA217B307E407F50720F0A21B0F
:100F9000B30BE40BF50B661F771F881F991F1A947C
:100FA00069F760957095809590959B01AC01BD01A6
:100FB000CF010895A29FB001B39FC001A39F700D00
:100FC000811D1124911DB29F700D811D1124911D51
:100FD0000895EE0FFF1F0590F491E02D09940F93F3
:100FE0001F93CF93DF938230910510F482E090E05D
:100FF000E0913A02F0913B0230E020E0B0E0A0E066
:10100000309799F42115310509F44AC0281B390B92
:1010100024303105D8F58A819B816115710589F1EC
:10102000FB0193838283FE0111C0408151810281C3
:10103000138148175907E0F04817590799F410979A
:1010400061F012960C93129713961C933296CF016F
:10105000DF91CF911F910F91089500933A02109361
:101060003B02F4CF2115310551F04217530738F0F8
:10107000A901DB019A01BD01DF01F801C1CFEF0138
:10108000F9CF90933B0280933A02CDCFFE01E20F5D
:10109000F31F819391932250310939832883D7CF4D
:1010A0002091380230913902232B41F4209106011E
:1010B00030910701309339022093380220910401C6
:1010C000309105012115310541F42DB73EB740910E
:1010D000080150910901241B350BE0913802F09171
:1010E0003902E217F307A0F42E1B3F0B281739072C
:1010F00078F0AC014E5F5F4F2417350748F04E0F74
:101100005F1F5093390240933802819391939FCF90
:10111000F0E0E0E09CCFCF93DF930097E9F0FC0193
:10112000329713821282A0913A02B0913B02ED01F4
:1011300030E020E01097A1F420813181820F931FCD
:1011400020913802309139022817390709F061C01F
:10115000F0933902E0933802DF91CF910895EA01CC
:10116000CE17DF07E8F54A815B819E0141155105E5
:10117000B1F7E901FB83EA8349915991C40FD51F67
:10118000EC17FD0761F4808191810296840F951F11
:10119000E90199838883828193819B838A83F0E02C
:1011A000E0E012968D919C9113970097B9F52D91DF
:1011B0003C911197CD010296820F931F2091380226
:1011C000309139022817390739F6309751F51092C6
:1011D0003B0210923A02B0933902A0933802BCCF7E
:1011E000D383C28340815181840F951FC817D907CB
:1011F00061F44E5F5F4F88819981480F591F518379
:1012000040838A819B81938382832115310509F074
:10121000B0CFF0933B02E0933A029ECFFD01DC0198
:10122000C0CF13821282D7CFB0E0A0E0EAE1F9E0AC
:101230000C9483078C01009751F4CB010E94EF07B7
:101240008C01C801CDB7DEB7E0E10C949F07FC012B
:10125000E60FF71F9C0122503109E217F30708F44B
:101260009DC0D901CD91DC911197C617D70798F091
:10127000C530D10530F3CE0104978617970708F3E0
:10128000C61BD70B2297C193D1936D937C93CF014B
:101290000E948B08D6CF5B01AC1ABD0A4C018C0EA4
:1012A0009D1EA0913A02B0913B02512C412CF12C91
:1012B000E12C109731F58091380290913902881510
:1012C000990509F05CC04616570608F058C0809191
:1012D000040190910501009741F48DB79EB74091AC
:1012E000080150910901841B950BE817F90708F0D4
:1012F00055C0F0933902E0933802F901718360839D
:10130000A0CF8D919C91119712966C901297139685
:101310007C901397A815B90559F56C0142E0C40EED
:10132000D11CCA14DB0420F1AC014A195B09DA01B3
:101330001296159780F06282738251834083D9019F
:101340006D937C93E114F10471F0D7011396FC9333
:10135000EE93129776CF22968C0F9D1FF901918301
:101360008083F301EFCFF0933B02E0933A0269CF21
:101370004816590608F42C017D01D3019ACFCB0100
:101380000E94EF077C01009749F0AE01B8010E946E
:10139000D109C8010E948B08870153CF10E000E0FB
:1013A00050CFFB01DC0102C001900D924150504032
:1013B000D8F70895FB01DC018D910190801901108F
:1013C000D9F3990B0895FB01DC0101900D920020E7
:1013D000E1F7089510E0C2E6D0E004C0FE010E94EB
:0E13E000E9072196C336D107C9F7F894FFCF6D
:1013EE000100000000003C028000000000004C01E3
:1013FE00AC00D90099010A01E800FC000D0A00704A
:10140E006C61790052616E646F6D736565642073F3
:10141E0065742C2067616D6520626567696E730067
:10142E006C6F6F700077696E0057494E00425554CD
:04143E00544F4E00B9
:00000001FF
