:100000000C9463000C948B000C948B000C948B006C
:100010000C948B000C948B000C948B000C948B0034
:100020000C948B000C948B000C948B000C948B0024
:100030000C948B000C948B000C948B000C948B0014
:100040000C9457020C948B000C948B000C948B0036
:100050000C948B000C948B000C948B000C948B00F4
:100060000C948B000C948B000000000023002600F1
:10007000290000000008000201000003040700003E
:1000800000000000000000000000250028002B00F8
:1000900000000000240027002A00040404040404D3
:1000A0000404020202020202030303030303010227
:1000B00004081020408001020408102001020408F6
:1000C00010205705BA0511241FBECFEFD8E0DEBFC0
:1000D000CDBF21E0A6E2B1E001C01D92AB37B2076F
:1000E000E1F711E0A0E0B1E0E4EAF0E102C0059040
:1000F0000D92A632B107D9F710E0C2E6D0E004C0F5
:100100002197FE010E944406C136D107C9F70E941B
:10011000A1020C9445080C94000090E0FC01E2550B
:10012000FF4F249186569F4FFC018491882399F0BC
:1001300090E0880F991FFC01E057FF4FA591B49103
:10014000FC01EA57FF4F859194918FB7F894EC9199
:10015000E22BEC938FBF0895833081F028F4813037
:1001600099F08230A9F008958730A9F08830C9F05D
:100170008430B1F4809180008F7D03C08091800035
:100180008F7780938000089584B58F7784BD08951C
:1001900084B58F7DFBCF8091B0008F778093B000C6
:1001A00008958091B0008F7DF9CF1F93CF93DF9397
:1001B000282F30E0F901EE58FF4F8491F901E25504
:1001C000FF4FD491F901E656FF4FC491CC23A9F01B
:1001D000162F81110E94AC00EC2FF0E0EE0FFF1FF4
:1001E000EA57FF4FA591B4918FB7F894EC91111194
:1001F00008C0D095DE23DC938FBFDF91CF911F9194
:100200000895DE2BF8CFCF93DF93CDE3D1E060E00C
:100210008A810E94D5001AA260E08C810E94D500DC
:100220001BA260E08E810E94D5001CA2DF91CF91BD
:1002300008953FB7F89480912B0190912C01A091E3
:100240002D01B0912E0126B5A89B05C02F3F19F0B6
:100250000196A11DB11D3FBFBA2FA92F982F882746
:10026000BC01CD01620F711D811D911D42E0660F21
:10027000771F881F991F4A95D1F708958F929F92F3
:10028000AF92BF92CF92DF92EF92FF924B015C014F
:100290000E9419016B017C010E9419016C197D09F2
:1002A0008E099F09683E734081059105A8F321E0FE
:1002B000821A9108A108B10888EEC80E83E0D81E02
:1002C000E11CF11C81149104A104B10429F7FF90F1
:1002D000EF90DF90CF90BF90AF909F908F90089558
:1002E0002FB7F8946091270170912801809129011E
:1002F00090912A012FBF08950F931F93CF93DF93FF
:1003000000D01F92CDB7DEB78B01092E000CAA0BCF
:10031000BB0B4091330150913401609135017091D4
:100320003601481759076A077B07D4F50E94030175
:1003300068EC70E080E090E00E943E0119821A8231
:100340001B82FE013196802F817081931595079550
:1003500001151105C1F71981612F809143010E9498
:10036000D500109361011A81612F809141010E9493
:10037000D500109360011B81612F80913F010E9485
:10038000D50010935F0164EF71E080E090E00F9082
:100390000F900F90DF91CF911F910F910C943E0120
:1003A0000F900F900F90DF91CF911F910F910895B3
:1003B000CF93DF93EC0180917101909172010097CE
:1003C00059F020917301309174012C173D0720F0F2
:1003D00081E0DF91CF910895BE016F5F7F4F0E9452
:1003E0006F07009789F09093720180937101D09309
:1003F0007401C09373012091750130917601232B14
:1004000039F7FC011082E4CF80E0E3CF0F931F9314
:10041000CF93DF938C01EC0109900020E9F721973D
:10042000C81BD90BCE010E94D801209171013091D7
:100430007201811117C02115310519F0C9010E94FF
:10044000E6061092720110927101109276011092DC
:1004500075011092740110927301DF91CF911F9179
:100460000F910895D0937601C0937501B801C90129
:10047000DF91CF911F910F910C943E08209175014F
:1004800030917601232B39F421E0FC01808188230F
:1004900061F020E00AC0BC0180917101909172016D
:1004A0000E94350821E0892BA1F7822F08951F9221
:1004B0000F920FB60F9211242F933F938F939F9318
:1004C000AF93BF938091270190912801A0912901BA
:1004D000B0912A013091260123E0230F2D3758F5E2
:1004E0000196A11DB11D20932601809327019093B1
:1004F0002801A0932901B0932A0180912B019091AA
:100500002C01A0912D01B0912E010196A11DB11DCC
:1005100080932B0190932C01A0932D01B0932E0179
:10052000BF91AF919F918F913F912F910F900FBEEF
:100530000F901F90189526E8230F0296A11DB11D5C
:10054000D2CF789484B5826084BD84B5816084BD47
:1005500085B5826085BD85B5816085BD80916E0061
:10056000816080936E001092810080918100826092
:1005700080938100809181008160809381008091CF
:1005800080008160809380008091B10084608093BE
:10059000B1008091B00081608093B00080917A00BA
:1005A000846080937A0080917A00826080937A00E0
:1005B00080917A00816080937A0080917A008068CF
:1005C00080937A001092C10052E0252E312C64EF06
:1005D000662E7724739470E0472E70E0572EECE27D
:1005E000AE2EBB24B394F0E98F2E9924939486E029
:1005F00091E00E943E02882309F440C00E9403015A
:100600006CEB72E080E090E00E943E0161E080913E
:1006100043010E94D500C1E0C09361016CEB72E020
:1006200080E090E00E943E0161E0809141010E94E3
:10063000D500C09360016CEB72E080E090E00E9416
:100640003E0161E080913F010E94D500C0935F01AF
:100650006CEB72E080E090E00E943E010E9403019A
:100660000E9470016093390170933A0180933B01BD
:1006700090933C0180E191E00E94060280E191E0CC
:100680000E943E02882309F4BEC08091590188234C
:1006900009F4B9C000913701109138010F5F1F4F65
:1006A0001093380100933701C80164E170E00E94A3
:1006B000FA05E101C61BD70BC330D10528F5FE01B1
:1006C000E35CFE4F21E025A3FE01EE0FFF1FEB5977
:1006D000FE4F45E0489F9001499F300D1124318322
:1006E0002083FE01EE0FFF1FE559FE4F71826082ED
:1006F0000E947001CC0FDD1FCC0FDD1FC35CDE4FED
:100700006F87788B898B9A8B053111050CF47BC030
:100710001092640161E0809143010E94D500C1E024
:10072000C0936101093211050CF46DC01092630190
:1007300061E0809141010E94D500C09360010D33BA
:1007400011050CF460C0C0936201B0926601A092E2
:10075000650190926C0180926B010E947001609320
:100760004C0170934D0180934E0190934F01C093C3
:100770006301B0926801A092670190926E0180922D
:100780006D010E947001609350017093510180933C
:10079000520190935301C0936401B0926A01A092F8
:1007A00069019092700180926F010E9470016093C4
:1007B00054017093550180935601909357010E9404
:1007C00070010091390110913A0120913B01309163
:1007D0003C01601B710B820B930B60933301709390
:1007E000340180933501909336010E94700160932B
:1007F0002F0170933001809331019093320185E194
:1008000091E00E94060285E191E00E943E02882369
:1008100009F447C00E9470016C5F7840810991091A
:1008200000912F011091300120913101309132015E
:100830000617170728073907A0F5109262011092D2
:1008400063011092640161E070E088E99AE30E941C
:100850007C0162E070E08CEE9CE20E947C0163E02F
:1008600070E080E197E20E947C0164E070E088E241
:1008700093E20E947C0165E070E080E49FE10E94C9
:100880007C0166E070E08CE49DE10E947C0167E001
:1008900070E088E59BE10E947C018DE191E00E947F
:1008A00006028DE191E00E943E02882369F1809169
:1008B0005B0190915C01A0915D01B0915E0181327C
:1008C0009340A105B10500F186E091E00E94060287
:1008D00010923801109237011092390110923A01AA
:1008E00010923B0110923C0110923301109234019E
:1008F000109235011092360110922F0110923001A2
:10090000109231011092320110925A011092590145
:1009100010925B0110925C0110925D0110925E01D9
:10092000C0903D01D0903E010D2C000CEE08FF0858
:100930008091480190914901A0914A01B0914B01E9
:10094000C80ED91EEA1EFB1E0E947001C616D706ED
:10095000E806F90630F5209145013091460133272C
:10096000F901EE58FF4F8491F901E255FF4FC49110
:10097000F901E656FF4FD491DD2379F081110E94F1
:10098000AC00ED2FF0E0EE0FFF1FE859FF4FA591EF
:10099000B491EC91CE2381E009F480E081708093E2
:1009A00047018091470190915801911161C08823BE
:1009B00069F081E0809359010E94700160934801C1
:1009C0007093490180934A0190934B0180914701B4
:1009D00080935801CDE3D1E07E0110E000E08DA1CD
:1009E000882321F10E947001F701C0A4D1A4F8016D
:1009F000E35CFE4F2785308941895289621B730B66
:100A0000840B950BF70126A537A52C0D3D1D50E055
:100A100040E00E940E06960150E040E06217730726
:100A20008407950708F041C0F1E0FAA3219622E07F
:100A3000E20EF11C0C5F1F4F0C30110581F6609126
:100A40005F0180913F010E94D5006091600180911B
:100A500041010E94D50060916101809143010E9493
:100A6000D5004114510409F4C2CD0E940000BFCD4D
:100A70008823B9F00E94700100914801109149014A
:100A800020914A0130914B01601B710B820B930B3B
:100A900060935B0170935C0180935D0190935E01B4
:100AA00095CF81E080935A0191CF1AA2BFCF83E006
:100AB0000E948D0082E00E948D0084E00E948D00E3
:100AC00083E090E09093400180933F0182E090E0CA
:100AD000909342018093410184E090E0909344011F
:100AE0008093430185E090E0909346018093450117
:100AF0008FE090E090933E0180933D011092480179
:100B00001092490110924A0110924B011092720109
:100B1000109271011092740110927301109276017B
:100B20001092750189E090E00E94D8012091710136
:100B300030917201811113C02115310519F0C901DD
:100B40000E94E606109272011092710110927601D5
:100B5000109275011092740110927301089589E04A
:100B600090E0909376018093750166E071E0C90191
:100B70000C943E088091710190917201009711F0E0
:100B80000C94E60608952F923F924F925F926F92D7
:100B90007F928F929F92AF92BF92CF92DF92EF920D
:100BA000FF920F931F93CF93DF93CDB7DEB7CA1B8E
:100BB000DB0B0FB6F894DEBF0FBECDBF09942A88B9
:100BC000398848885F846E847D848C849B84AA8461
:100BD000B984C884DF80EE80FD800C811B81AA81EE
:100BE000B981CE0FD11D0FB6F894DEBF0FBECDBFB9
:100BF000ED01089597FB072E16F4009407D077FDBA
:100C000009D00E94300607FC05D03EF490958195EE
:100C10009F4F0895709561957F4F0895A1E21A2E18
:100C2000AA1BBB1BFD010DC0AA1FBB1FEE1FFF1F90
:100C3000A217B307E407F50720F0A21BB30BE40BE0
:100C4000F50B661F771F881F991F1A9469F7609527
:100C50007095809590959B01AC01BD01CF010895E1
:100C6000AA1BBB1B51E107C0AA1FBB1FA617B707D2
:100C700010F0A61BB70B881F991F5A95A9F78095EE
:100C80009095BC01CD010895EE0FFF1F0590F491E2
:100C9000E02D09940F931F93CF93DF93823091053A
:100CA00010F482E090E0E0917901F0917A0130E077
:100CB00020E0B0E0A0E0309799F42115310509F467
:100CC0004AC0281B390B24303105D8F58A819B8115
:100CD0006115710589F1FB0193838283FE0111C0C7
:100CE000408151810281138148175907E0F048176C
:100CF000590799F4109761F012960C931297139676
:100D00001C933296CF01DF91CF911F910F910895DF
:100D10000093790110937A01F4CF2115310551F038
:100D20004217530738F0A901DB019A01BD01DF0129
:100D3000F801C1CFEF01F9CF90937A018093790147
:100D4000CDCFFE01E20FF31F819391932250310921
:100D500039832883D7CF2091770130917801232BD5
:100D600041F42091020130910301309378012093E6
:100D7000770120910001309101012115310541F4E5
:100D80002DB73EB74091040150910501241B350B4E
:100D9000E0917701F0917801E217F307A0F42E1BA0
:100DA0003F0B2817390778F0AC014E5F5F4F2417CF
:100DB000350748F04E0F5F1F50937801409377013D
:100DC000819391939FCFF0E0E0E09CCFCF93DF93AE
:100DD0000097E9F0FC01329713821282A091790109
:100DE000B0917A01ED0130E020E01097A1F420816C
:100DF0003181820F931F209177013091780128175C
:100E0000390709F061C0F0937801E0937701DF9131
:100E1000CF910895EA01CE17DF07E8F54A815B819B
:100E20009E0141155105B1F7E901FB83EA83499120
:100E30005991C40FD51FEC17FD0761F48081918192
:100E40000296840F951FE90199838883828193819B
:100E50009B838A83F0E0E0E012968D919C9113973A
:100E60000097B9F52D913C911197CD010296820F13
:100E7000931F20917701309178012817390739F6AF
:100E8000309751F510927A0110927901B093780160
:100E9000A0937701BCCFD383C28340815181840F5B
:100EA000951FC817D90761F44E5F5F4F88819981FC
:100EB000480F591F518340838A819B81938382838A
:100EC0002115310509F0B0CFF0937A01E093790153
:100ED0009ECFFD01DC01C0CF13821282D7CFB0E0DC
:100EE000A0E0E5E7F7E00C94C5058C01009751F40C
:100EF000CB010E944A068C01C801CDB7DEB7E0E104
:100F00000C94E105FC01E60FF71F9C01225031090A
:100F1000E217F30708F49DC0D901CD91DC91119738
:100F2000C617D70798F0C530D10530F3CE01049726
:100F30008617970708F3C61BD70B2297C193D19347
:100F40006D937C93CF010E94E606D6CF5B01AC1A6D
:100F5000BD0A4C018C0E9D1EA0917901B0917A01C1
:100F6000512C412CF12CE12C109731F58091770117
:100F7000909178018815990509F05CC046165706CE
:100F800008F058C08091000190910101009741F450
:100F90008DB79EB74091040150910501841B950BBC
:100FA000E817F90708F055C0F0937801E09377014E
:100FB000F90171836083A0CF8D919C911197129656
:100FC0006C90129713967C901397A815B90559F554
:100FD0006C0142E0C40ED11CCA14DB0420F1AC0148
:100FE0004A195B09DA011296159780F062827382C2
:100FF00051834083D9016D937C93E114F10471F026
:10100000D7011396FC93EE93129776CF22968C0F0E
:101010009D1FF90191838083F301EFCFF0937A0153
:10102000E093790169CF4816590608F42C017D0137
:10103000D3019ACFCB010E944A067C01009749F068
:10104000AE01B8010E942C08C8010E94E606870183
:1010500053CF10E000E050CFFB01DC0102C0019053
:101060000D9241505040D8F70895FB01DC018D915D
:10107000019080190110D9F3990B0895FB01DC014F
:1010800001900D920020E1F7089510E0C2E6D0E053
:1010900004C0FE010E9444062196C336D107C9F759
:0410A000F894FFCFF2
:1010A40000007B018000636F756E74646F776E005F
:1010B400726163650067616D65456E640072657396
:0610C400756C747300005E
:00000001FF
