:100000000C9463000C948B000C948B000C948B006C
:100010000C948B000C948B000C948B000C948B0034
:100020000C948B000C948B000C948B000C948B0024
:100030000C948B000C948B000C948B000C948B0014
:100040000C94C5020C948B000C9493020C946D02DA
:100050000C948B000C948B000C948B000C948B00F4
:100060000C948B000C948B000000000023002600F1
:10007000290000000008000201000003040700003E
:1000800000000000000000000000250028002B00F8
:1000900000000000240027002A00040404040404D3
:1000A0000404020202020202030303030303010227
:1000B00004081020408001020408102001020408F6
:1000C00010200F036D0611241FBECFEFD8E0DEBF56
:1000D000CDBF22E0A2E3B1E001C01D92A032B20781
:1000E000E1F711E0A0E0B1E0E2EAF5E102C005903D
:1000F0000D92A233B107D9F710E0C2E6D0E004C0F8
:100100002197FE010E94C308C136D107C9F70E949A
:1001100079030C94C40A0C94000090E0FC01E255B1
:10012000FF4F249186569F4FFC018491882399F0BC
:1001300090E0880F991FFC01E057FF4FA591B49103
:10014000FC01EA57FF4F859194918FB7F894EC9199
:10015000E22BEC938FBF0895AF92BF92CF92DF92C4
:10016000EF92FF920F931F93CF93DF936C017B016C
:100170008B01040F151FEB015E01AE18BF08C017FD
:10018000D10759F06991D601ED91FC910190F08170
:10019000E02DC6010995892B79F7C501DF91CF9133
:1001A0001F910F91FF90EF90DF90CF90BF90AF9095
:1001B0000895FC01538D448D252F30E0842F90E06D
:1001C000821B930B541710F0CF9608950197089552
:1001D000FC01918D828D981761F0A28DAE0FBF2F1B
:1001E000B11D5D968C91928D9F5F9F73928F90E071
:1001F00008958FEF9FEF0895FC01918D828D9817E0
:1002000031F0828DE80FF11D858D90E008958FEF1C
:100210009FEF0895FC01918D228D892F90E0805CE5
:100220009F4F821B91098F739927089581E491E074
:100230000E940A0121E0892B09F420E0822F089511
:1002400080E090E0892B29F00E94160181110C9426
:1002500000000895FC01A48DA80FB92FB11DA35A69
:10026000BF4F2C91848D90E001968F739927848FD6
:10027000A689B7892C93A089B1898C9183708064F9
:100280008C93938D848D981306C00288F389E02D9A
:1002900080818F7D80830895EF92FF920F931F934B
:1002A000CF93DF93EC0181E0888F9B8D8C8D981329
:1002B0001AC0E889F989808185FF15C09FB7F89435
:1002C000EE89FF896083E889F98980818370806481
:1002D00080839FBF81E090E0DF91CF911F910F91CC
:1002E000FF90EF900895F62E0B8D10E00F5F1F4FDB
:1002F0000F731127E02E8C8D8E110CC00FB607FCEA
:10030000FACFE889F989808185FFF5CFCE010E9477
:100310002A01F1CFEB8DEC0FFD2FF11DE35AFF4FBA
:10032000F0829FB7F8940B8FEA89FB898081806205
:10033000CFCFCF93DF93EC01888D8823B9F0AA89C2
:10034000BB89E889F9898C9185FD03C0808186FD90
:100350000DC00FB607FCF7CF8C9185FFF2CF8081DF
:1003600085FFEDCFCE010E942A01E9CFDF91CF9129
:100370000895833081F028F4813099F08230A9F01B
:1003800008958730A9F08830C9F08430B1F48091A5
:1003900080008F7D03C0809180008F7780938000E4
:1003A000089584B58F7784BD089584B58F7DFBCF84
:1003B0008091B0008F778093B00008958091B00055
:1003C0008F7DF9CF1F93CF93DF93282F30E0F90172
:1003D000EE58FF4F8491F901E255FF4FD491F90196
:1003E000E656FF4FC491CC23A9F0162F81110E942D
:1003F000B901EC2FF0E0EE0FFF1FEA57FF4FA59178
:10040000B4918FB7F894EC91111108C0D095DE2308
:10041000DC938FBFDF91CF911F910895DE2BF8CF32
:100420002FB7F894609137017091380180913901AC
:1004300090913A012FBF08950F931F93CF93DF93AD
:100440008C01EB018091E2019091E301009739F07A
:100450002091E4013091E50126173707B8F4BE0179
:100460006F5F7F4F0E94EE090097E1F09093E301E8
:100470008093E201D093E501C093E4012091E6016D
:100480003091E701232B11F4FC011082D093E70196
:10049000C093E601B8018091E2019091E3010E94CE
:1004A000BD0A14C08091E2019091E301009711F020
:1004B0000E9465091092E3011092E2011092E70197
:1004C0001092E6011092E5011092E40182EE91E0B3
:1004D000DF91CF911F910F9108951F920F920FB648
:1004E0000F9211242F933F934F935F936F937F93BA
:1004F0008F939F93AF93BF93EF93FF9381E491E02A
:100500000E942A01FF91EF91BF91AF919F918F912E
:100510007F916F915F914F913F912F910F900FBEFF
:100520000F901F9018951F920F920FB60F921124E3
:100530002F938F939F93EF93FF93E0915101F0914D
:1005400052018081E0915701F091580182FD1BC05A
:10055000908180915A018F5F8F7320915B01821788
:1005600041F0E0915A01F0E0EF5BFE4F958F8093F0
:100570005A01FF91EF919F918F912F910F900FBE94
:100580000F901F9018958081F4CF1F920F920FB695
:100590000F9211242F933F938F939F93AF93BF9309
:1005A0008091370190913801A0913901B0913A01C1
:1005B0003091360123E0230F2D3758F50196A11D08
:1005C000B11D209336018093370190933801A09399
:1005D0003901B0933A018091320190913301A09199
:1005E0003401B09135010196A11DB11D80933201F6
:1005F00090933301A0933401B0933501BF91AF9133
:100600009F918F913F912F910F900FBE0F901F9050
:10061000189526E8230F0296A11DB11DD2CFE1E463
:10062000F1E01382128288EE93E0A0E0B0E08483D0
:100630009583A683B7838AE091E09183808385ECDC
:1006400090E09587848784EC90E09787868780EC9C
:1006500090E0918B808B81EC90E0938B828B82EC8D
:1006600090E0958B848B86EC90E0978B868B118E37
:10067000128E138E148E83E00E948D0082E00E9401
:100680008D0084E00E948D00E8EEF1E083E090E0D0
:100690009383828382E090E09583848384E090E07A
:1006A0009783868385E090E0918780878FE090E054
:1006B000918380831386148615861686E2EEF1E018
:1006C00011821082138212821582148267E070E018
:1006D00088E191E00E941C0280E090E8A2E2B4E48C
:1006E0008093DE019093DF01A093E001B093E101DC
:1006F0000895789484B5826084BD84B5816084BD9A
:1007000085B5826085BD85B5816085BD80916E00AF
:10071000816080936E0010928100809181008260E0
:10072000809381008091810081608093810080911D
:1007300080008160809380008091B100846080930C
:10074000B1008091B00081608093B00080917A0008
:10075000846080937A0080917A00826080937A002E
:1007600080917A00816080937A0080917A0080681D
:1007700080937A001092C100E0915101F0915201F2
:1007800082E08083E0914D01F0914E011082E09172
:100790004F01F09150018FEC808310925901E0914C
:1007A0005501F091560186E08083E0915301F0916C
:1007B0005401808180618083E0915301F091540164
:1007C000808188608083E0915301F09154018081A1
:1007D00080688083E0915301F091540180818F7D86
:1007E00080836624639443E0C42ED12C50E0E52E30
:1007F00050E0F52E772473948091E6019091E70103
:10080000892B09F426C168E171E08091E2019091A1
:10081000E3010E94B40A892B09F0B9C00E941002BA
:1008200000913D0110913E0120913F013091400126
:10083000601B710B820B930B0E947B062091DE01E3
:100840003091DF014091E0015091E1010E94740874
:100850001816C4F5C0913B01D0913C018E010F5F89
:100860001F4FC330D10560F4F801EE0FFF1FE851B0
:10087000FE4F60E080810E94E201C851DE4F1AA263
:10088000C801B6010E947908EC0190933C01809365
:100890003B018330910560F4FC01EE0FFF1FE65130
:1008A000FE4F61E080810E94E201C851DE4F6AA2E2
:1008B0000E94100260933D0170933E0180933F01BE
:1008C0009093400180910402882309F459C047E0C5
:1008D00050E060E271E081E491E00E94AC0042E00F
:1008E00050E068E271E081E491E00E94AC00809108
:1008F0003B0190913C01019709F062C12DEC3CEC69
:100900004CE45FE36091DE017091DF018091E001D2
:100910009091E1010E94DC066093DE017093DF019B
:100920008093E0019093E10120E030E040E85EE355
:100930000E94DC060E94450870920E02709313021A
:100940006093120270931902609318020E941002C1
:100950006093FB017093FC018093FD019093FE0175
:1009600065E070E08BE291E00E941C020E941002A0
:1009700060933D0170933E0180933F01909340014D
:100980008091E6019091E701892B09F462C06BE246
:1009900071E08091E2019091E3010E94B40A892BF9
:1009A00009F057C06091DE017091DF018091E00194
:1009B0009091E1019B01AC010E94D2074B015C01C7
:1009C00020E030E048E453E40E947408C8ECD0E032
:1009D00018162CF4C501B4010E943E08EB010E94D8
:1009E000100200913D0110913E0120913F01309194
:1009F0004001AB01BC01401B510B620B730BCE01DC
:100A0000DD0FAA0BBB0B84179507A607B70708F5E0
:100A100010920D0210920E0210920F0260E080916F
:100A2000EA010E94E20110920A0260E08091EC016A
:100A30000E94E20110920B0260E08091EE010E94A0
:100A4000E20110920C0267E070E088E191E00E9400
:100A50001C021092050210920402109206021092DB
:100A6000070210920802109209028090E80190900B
:100A7000E901092C000CAA08BB088091F3019091B0
:100A8000F401A091F501B091F601880E991EAA1EFD
:100A9000BB1E0E94100286169706A806B90630F5FE
:100AA0002091F0013091F1013327F901EE58FF4F09
:100AB0008491F901E255FF4FC491F901E656FF4FC9
:100AC000D491DD2379F081110E94B901ED2FF0E07E
:100AD000EE0FFF1FE859FF4FA591B491EC91CE2383
:100AE00081E009F480E081708093F2018091F2014D
:100AF000909103029111D3C0882361F07092040297
:100B00000E9410026093F3017093F4018093F50149
:100B10009093F6018091F20180930302C8EED1E038
:100B20005E0110E000E08DA1882319F10E941002FF
:100B3000F50180A491A4F801E851FE4F2785308982
:100B400041895289621B730B840B950BF50126A515
:100B500037A5280D391D50E040E00E948D08940112
:100B600050E040E0621773078407950708F0B3C0B0
:100B70006AA22196F2E0AF0EB11C0C5F1F4F0C3041
:100B8000110589F660910A028091EA010E94E20152
:100B900060910B028091EC010E94E20160910C02D5
:100BA0008091EE010E94E201E114F10409F424CEE7
:100BB0000E941601882309F41FCE0E9400001CCE5B
:100BC00020E030E040E250E46091DE017091DF010E
:100BD0008091E0019091E1010E94DC064B015C01F3
:100BE00020E030E842E254E40E94760687FD07C028
:100BF000812C90E8992E92E2A92E94E4B92E80924D
:100C0000DE019092DF01A092E001B092E10120E0CC
:100C100030E040E05FE3C501B4010E94DC060E94C1
:100C200045084B0170920D027093110260931002FF
:100C300070931702609316020E9410026093F701EE
:100C40007093F8018093F9019093FA0170920E026B
:100C500090921302809212029092190280921802CE
:100C60000E9410026093FB017093FC018093FD01D0
:100C70009093FE0170920F029092150280921402DE
:100C800090921B0280921A020E9410026093FF0150
:100C900070930002809301029093020261CE882338
:100CA000B9F00E9410020091F3011091F40120911B
:100CB000F5013091F601601B710B820B930B609371
:100CC000060270930702809308029093090222CFD4
:100CD000709205021FCF1AA24CCF8091E201909131
:100CE000E301009711F00C94650908950E94B8067D
:100CF00008F481E00895E89409C097FB3EF49095CC
:100D00008095709561957F4F8F4F9F4F9923A9F0E4
:100D1000F92F96E9BB279395F69587957795679573
:100D2000B795F111F8CFFAF4BB0F11F460FF1BC0B7
:100D30006F5F7F4F8F4F9F4F16C0882311F096E94A
:100D400011C0772321F09EE8872F762F05C06623F8
:100D500071F096E8862F70E060E02AF09A95660FB1
:100D6000771F881FDAF7880F9695879597F908956A
:100D7000990F0008550FAA0BE0E8FEEF16161706AC
:100D8000E807F907C0F012161306E407F50798F014
:100D9000621B730B840B950B39F40A2661F0232B2D
:100DA000242B252B21F408950A2609F4A140A695A9
:100DB0008FEF811D811D08950E94EF060C9460073E
:100DC0000E94520738F00E94590720F0952311F035
:100DD0000C9449070C944F0711240C9494070E941B
:100DE000710770F3959FC1F3950F50E0551F629FF7
:100DF000F001729FBB27F00DB11D639FAA27F00D74
:100E0000B11DAA1F649F6627B00DA11D661F829F9A
:100E10002227B00DA11D621F739FB00DA11D621F7F
:100E2000839FA00D611D221F749F3327A00D611D9C
:100E3000231F849F600D211D822F762F6A2F11247E
:100E40009F5750409AF0F1F088234AF0EE0FFF1FB1
:100E5000BB1F661F771F881F91505040A9F79E3F08
:100E6000510580F00C9449070C9494075F3FE4F31C
:100E7000983ED4F3869577956795B795F795E7955E
:100E80009F5FC1F7FE2B880F911D9695879597F967
:100E9000089597F99F6780E870E060E008959FEFFC
:100EA00080EC089500240A94161617061806090601
:100EB000089500240A9412161306140605060895D0
:100EC000092E0394000C11F4882352F0BB0F40F458
:100ED000BF2B11F460FF04C06F5F7F4F8F4F9F4F98
:100EE000089557FD9058440F551F59F05F3F71F01A
:100EF0004795880F97FB991F61F09F3F79F0879581
:100F00000895121613061406551FF2CF4695F1DF09
:100F100008C0161617061806991FF1CF8695710599
:100F2000610508940895E894BB2766277727CB01CD
:100F300097F908952F923F924F925F926F927F920E
:100F40008F929F92AF92BF92CF92DF92EF92FF92D9
:100F50000F931F93CF93DF93CDB7DEB7CA1BDB0B85
:100F60000FB6F894DEBF0FBECDBF09942A8839882A
:100F700048885F846E847D848C849B84AA84B98431
:100F8000C884DF80EE80FD800C811B81AA81B9813D
:100F9000CE0FD11D0FB6F894DEBF0FBECDBFED0151
:100FA00008955058BB27AA270E94E9070C946007B0
:100FB0000E94520738F00E94590720F039F49F3FF1
:100FC00019F426F40C944F070EF4E095E7FB0C940B
:100FD0004907E92F0E94710758F3BA176207730790
:100FE0008407950720F079F4A6F50C9493070EF486
:100FF000E0950B2EBA2FA02D0B01B90190010C0129
:10100000CA01A0011124FF27591B99F0593F50F440
:10101000503E68F11A16F040A22F232F342F442798
:10102000585FF3CF469537952795A795F040539590
:10103000C9F77EF41F16BA0B620B730B840BBAF060
:101040009150A1F0FF0FBB1F661F771F881FC2F7CB
:101050000EC0BA0F621F731F841F48F487957795DF
:101060006795B795F7959E3F08F0B0CF9395880F99
:1010700008F09927EE0F9795879508950E944508E7
:101080006894B1110C94940708950E94790788F030
:101090009F5798F0B92F9927B751B0F0E1F0660F3C
:1010A000771F881F991F1AF0BA95C9F714C0B1307D
:1010B00091F00E949307B1E008950C949307672F75
:1010C000782F8827B85F39F0B93FCCF386957795AC
:1010D0006795B395D9F73EF4909580957095619595
:1010E0007F4F8F4F9F4F08950E94B80608F48FEFEF
:1010F000089597FB072E16F4009407D077FD09D0CA
:101100000E94AF0807FC05D03EF4909581959F4F53
:101110000895709561957F4F0895A1E21A2EAA1B3C
:10112000BB1BFD010DC0AA1FBB1FEE1FFF1FA21797
:10113000B307E407F50720F0A21BB30BE40BF50B94
:10114000661F771F881F991F1A9469F7609570951D
:10115000809590959B01AC01BD01CF010895AA1B1C
:10116000BB1B51E107C0AA1FBB1FA617B70710F092
:10117000A61BB70B881F991F5A95A9F780959095C4
:10118000BC01CD010895EE0FFF1F0590F491E02DF5
:1011900009940F931F93CF93DF938230910510F43E
:1011A00082E090E0E0911E02F0911F0230E020E02A
:1011B000B0E0A0E0309799F42115310509F44AC058
:1011C000281B390B24303105D8F58A819B816115A4
:1011D000710589F1FB0193838283FE0111C0408177
:1011E00051810281138148175907E0F048175907C8
:1011F00099F4109761F012960C93129713961C9322
:101200003296CF01DF91CF911F910F9108950093F6
:101210001E0210931F02F4CF2115310551F0421721
:10122000530738F0A901DB019A01BD01DF01F80184
:10123000C1CFEF01F9CF90931F0280931E02CDCF53
:10124000FE01E20FF31F81939193225031093983FC
:101250002883D7CF20911C0230911D02232B41F40B
:10126000209102013091030130931D0220931C0252
:1012700020910001309101012115310541F42DB774
:101280003EB74091040150910501241B350BE091BC
:101290001C02F0911D02E217F307A0F42E1B3F0B76
:1012A0002817390778F0AC014E5F5F4F24173507D8
:1012B00048F04E0F5F1F50931D0240931C02819314
:1012C00091939FCFF0E0E0E09CCFCF93DF93009726
:1012D000E9F0FC01329713821282A0911E02B091B4
:1012E0001F02ED0130E020E01097A1F42081318150
:1012F000820F931F20911C0230911D02281739077D
:1013000009F061C0F0931D02E0931C02DF91CF91C0
:101310000895EA01CE17DF07E8F54A815B819E0157
:1013200041155105B1F7E901FB83EA8349915991D0
:10133000C40FD51FEC17FD0761F4808191810296DF
:10134000840F951FE90199838883828193819B8310
:101350008A83F0E0E0E012968D919C9113970097BC
:10136000B9F52D913C911197CD010296820F931FF3
:1013700020911C0230911D022817390739F6309749
:1013800051F510921F0210921E02B0931D02A093FD
:101390001C02BCCFD383C28340815181840F951F2F
:1013A000C817D90761F44E5F5F4F88819981480F54
:1013B000591F518340838A819B81938382832115A6
:1013C000310509F0B0CFF0931F02E0931E029ECFCB
:1013D000FD01DC01C0CF13821282D7CFB0E0A0E0C4
:1013E000E4EFF9E00C949C078C01009751F4CB01D9
:1013F0000E94C9088C01C801CDB7DEB7E0E10C94AA
:10140000B807FC01E60FF71F9C0122503109E217D3
:10141000F30708F49DC0D901CD91DC911197C6174F
:10142000D70798F0C530D10530F3CE010497861761
:10143000970708F3C61BD70B2297C193D1936D93DF
:101440007C93CF010E946509D6CF5B01AC1ABD0A1F
:101450004C018C0E9D1EA0911E02B0911F02512CBA
:10146000412CF12CE12C109731F580911C029091C8
:101470001D028815990509F05CC04616570608F04C
:1014800058C08091000190910101009741F48DB7FF
:101490009EB74091040150910501841B950BE817FC
:1014A000F90708F055C0F0931D02E0931C02F90102
:1014B00071836083A0CF8D919C91119712966C904F
:1014C000129713967C901397A815B90559F56C01DE
:1014D00042E0C40ED11CCA14DB0420F1AC014A194D
:1014E0005B09DA011296159780F06282738251834C
:1014F0004083D9016D937C93E114F10471F0D7011D
:101500001396FC93EE93129776CF22968C0F9D1F25
:10151000F90191838083F301EFCFF0931F02E093F1
:101520001E0269CF4816590608F42C017D01D3012B
:101530009ACFCB010E94C9087C01009749F0AE0107
:10154000B8010E94AB0AC8010E946509870153CF08
:1015500010E000E050CFFB01DC0102C001900D92D1
:1015600041505040D8F70895FB01DC018D91019066
:1015700080190110D9F3990B0895FB01DC0101904A
:101580000D920020E1F7089510E0C2E6D0E004C01B
:10159000FE010E94C3082196C336D107C9F7F8940B
:0215A000FFCF7B
:1015A200000020028000000000004C01AC00D900C5
:1015B20099010A01E800FC00706C6179696E6700AC
:1015C20070726573736564000D0A007061757365EE
:0215D200000017
:00000001FF
