:100000000C9463000C948B000C948B000C948B006C
:100010000C948B000C948B000C948B000C948B0034
:100020000C948B000C948B000C948B000C948B0024
:100030000C948B000C948B000C948B000C948B0014
:100040000C9460010C948B000C948B000C948B002E
:100050000C948B000C948B000C948B000C948B00F4
:100060000C948B000C948B000000000023002600F1
:10007000290000000008000201000003040700003E
:1000800000000000000000000000250028002B00F8
:1000900000000000240027002A00040404040404D3
:1000A0000404020202020202030303030303010227
:1000B00004081020408001020408102001020408F6
:1000C00010204A04880411241FBECFEFD8E0DEBF01
:1000D000CDBF21E0A4E1B1E001C01D92A536B20779
:1000E000E1F711E0A0E0B1E0E8EDF1E102C0059038
:1000F0000D92A431B107D9F710E0C2E6D0E004C0F8
:100100002197FE010E94DE06C136D107C9F70E9481
:10011000AA010C94DF080C94000090E0FC01E25569
:10012000FF4F249186569F4FFC018491882399F0BC
:1001300090E0880F991FFC01E057FF4FA591B49103
:10014000FC01EA57FF4F859194918FB7F894EC9199
:10015000E22BEC938FBF0895833081F028F4813037
:1001600099F08230A9F008958730A9F08830C9F05D
:100170008430B1F4809180008F7D03C08091800035
:100180008F7780938000089584B58F7784BD08951C
:1001900084B58F7DFBCF8091B0008F778093B000C6
:1001A00008958091B0008F7DF9CF1F93CF93DF9397
:1001B000282F30E0F901EE58FF4F8491F901E25504
:1001C000FF4FD491F901E656FF4FC491CC23A9F01B
:1001D000162F81110E94AC00EC2FF0E0EE0FFF1FF4
:1001E000EA57FF4FA591B4918FB7F894EC91111194
:1001F00008C0D095DE23DC938FBFDF91CF911F9194
:100200000895DE2BF8CF2FB7F89460911901709103
:100210001A0180911B0190911C012FBF08950F932B
:100220001F93CF93DF938C01EB0180915B01909141
:100230005C01009739F020915D0130915E01261735
:100240003707B8F4BE016F5F7F4F0E94090800971F
:10025000E1F090935C0180935B01D0935E01C093C9
:100260005D0120915F0130916001232B11F4FC01AD
:100270001082D0936001C0935F01B80180915B014F
:1002800090915C010E94D80814C080915B0190910C
:100290005C01009711F00E94800710925C0110929F
:1002A0005B011092600110925F0110925E0110924A
:1002B0005D018BE591E0DF91CF911F910F91089542
:1002C0001F920F920FB60F9211242F933F938F938B
:1002D0009F93AF93BF938091190190911A01A091C0
:1002E0001B01B0911C013091180123E0230F2D3721
:1002F00058F50196A11DB11D209318018093190195
:1003000090931A01A0931B01B0931C0180911401DA
:1003100090911501A0911601B09117010196A11DB0
:10032000B11D8093140190931501A0931601B09311
:100330001701BF91AF919F918F913F912F910F9096
:100340000FBE0F901F90189526E8230F0296A11D4F
:10035000B11DD2CF789484B5826084BD84B58160AC
:1003600084BD85B5826085BD85B5816085BD809180
:100370006E00816080936E001092810080918100F8
:1003800082608093810080918100816080938100F0
:10039000809180008160809380008091B1008460B2
:1003A0008093B1008091B00081608093B000809113
:1003B0007A00846080937A0080917A0082608093D2
:1003C0007A0080917A00816080937A0080917A002F
:1003D000806880937A001092C1006624639443E0A1
:1003E000842E912C50E0A52E50E0B52E77247394E6
:1003F00080915F0190916001892B09F412C166E040
:1004000071E080915B0190915C010E94CF08892B83
:1004100009F0A5C00E940301C0902301D0902401DF
:10042000E0902501F090260100911F01109120011C
:100430002091210130912201601B710B820B930BE3
:100440000E949604A70196010E948F061816C4F513
:10045000C0911D01D0911E018E010F5F1F4FC3304F
:10046000D10560F4F801EE0FFF1FE95DFE4F60E07B
:1004700080810E94D500C95DDE4F1AA2C801B40177
:100480000E949406EC0190931E0180931D0183301D
:10049000910560F4FC01EE0FFF1FE75DFE4F61E088
:1004A00080810E94D500C95DDE4F6AA20E940301CF
:1004B00060931F017093200180932101909322018A
:1004C00080914301882309F443C080911D019091DC
:1004D0001E01019709F057C12DEC3CEC4CE45FE3A1
:1004E000C701B6010E94F7046093230170932401B1
:1004F000809325019093260120E030E040E85EE300
:100500000E94F7040E94600670924D0170935201A0
:100510006093510170935801609357010E94030149
:1005200060933A0170933B0180933C0190933D01AD
:1005300065E070E08EE091E00E940F010E940301EF
:1005400060931F01709320018093210190932201F9
:1005500080915F0190916001892B09F462C06EE087
:1005600071E080915B0190915C010E94CF08892B22
:1005700009F057C0609123017091240180912501F9
:10058000909126019B01AC010E94ED056B017C015D
:1005900020E030E048E453E40E948F06C8ECD0E04D
:1005A00018162CF4C701B6010E945906EB010E94EF
:1005B000030100911F011091200120912101309130
:1005C0002201AB01BC01401B510B620B730BCE012E
:1005D000DD0FAA0BBB0B84179507A607B70708F515
:1005E00010924C0110924D0110924E0160E08091EA
:1005F00029010E94D5001092490160E080912B01F1
:100600000E94D50010924A0160E080912D010E9465
:10061000D50010924B0167E070E086E091E00E9407
:100620000F01109244011092430110924501109263
:1006300046011092470110924801C0902701D090C6
:1006400028010D2C000CEE08FF08809132019091DA
:100650003301A0913401B0913501C80ED91EEA1EB4
:10066000FB1E0E940301C616D706E806F90630F500
:1006700020912F01309130013327F901EE58FF4FBF
:100680008491F901E255FF4FC491F901E656FF4FFD
:10069000D491DD2379F081110E94AC00ED2FF0E0C0
:1006A000EE0FFF1FE859FF4FA591B491EC91CE23B7
:1006B00081E009F480E08170809331018091310103
:1006C000909142019111C8C0882361F0709243015A
:1006D0000E940301609332017093330180933401CF
:1006E000909335018091310180934201C7E2D1E0BE
:1006F0007E0110E000E08DA1882319F10E94030122
:10070000F701C0A4D1A4F801E95DFE4F2785308927
:1007100041895289621B730B840B950BF70126A547
:1007200037A52C0D3D1D50E040E00E94A806960123
:1007300050E040E0621773078407950708F0A8C0EF
:100740006AA22196F2E0EF0EF11C0C5F1F4F0C30F5
:10075000110589F660914901809129010E94D50017
:1007600060914A0180912B010E94D50060914B015C
:1007700080912D010E94D500A114B10409F438CE56
:100780000E94000035CE20E030E040E250E4C70196
:10079000B6010E94F7046B017C0120E030E842E2E0
:1007A00054E40E94910487FD07C0C12C90E8D92E23
:1007B00092E2E92E94E4F92EC0922301D092240112
:1007C000E0922501F092260120E030E040E05FE376
:1007D000C701B6010E94F7040E9460066B01709287
:1007E0004C017093500160934F01709356016093D8
:1007F00055010E9403016093360170933701809385
:1008000038019093390170924D01D0925201C092FB
:100810005101D0925801C09257010E940301609388
:100820003A0170933B0180933C0190933D0170929B
:100830004E01D0925401C0925301D0925A01C092FD
:1008400059010E94030160933E0170933F01809320
:100850004001909341016CCE8823B9F00E940301BE
:100860000091320110913301209134013091350112
:10087000601B710B820B930B6093450170934601D3
:1008800080934701909348012DCF709244012ACF65
:100890001AA257CF82E00E948D0083E00E948D0053
:1008A00084E00E948D00E7E2F1E082E090E0938333
:1008B000828383E090E09583848384E090E0978353
:1008C000868385E090E0918780878FE090E0918338
:1008D00080831386148615861686EBE5F1E0118277
:1008E0001082138212821582148267E070E086E023
:1008F00091E00E940F0180E090E8A2E2B4E48093CE
:10090000230190932401A0932501B093260108951B
:1009100080915B0190915C01009711F00C9480072D
:1009200008950E94D30408F481E00895E89409C072
:1009300097FB3EF490958095709561957F4F8F4F12
:100940009F4F9923A9F0F92F96E9BB279395F69528
:10095000879577956795B795F111F8CFFAF4BB0FA6
:1009600011F460FF1BC06F5F7F4F8F4F9F4F16C00A
:10097000882311F096E911C0772321F09EE8872F94
:10098000762F05C0662371F096E8862F70E060E050
:100990002AF09A95660F771F881FDAF7880F9695C9
:1009A000879597F90895990F0008550FAA0BE0E86D
:1009B000FEEF16161706E807F907C0F01216130621
:1009C000E407F50798F0621B730B840B950B39F461
:1009D0000A2661F0232B242B252B21F408950A26C7
:1009E00009F4A140A6958FEF811D811D08950E94F5
:1009F0000A050C947B050E946D0538F00E94740571
:100A000020F0952311F00C9464050C946A051124D0
:100A10000C94AF050E948C0570F3959FC1F3950F60
:100A200050E0551F629FF001729FBB27F00DB11D72
:100A3000639FAA27F00DB11DAA1F649F6627B00D02
:100A4000A11D661F829F2227B00DA11D621F739FEB
:100A5000B00DA11D621F839FA00D611D221F749FF9
:100A60003327A00D611D231F849F600D211D822F40
:100A7000762F6A2F11249F5750409AF0F1F0882367
:100A80004AF0EE0FFF1FBB1F661F771F881F915094
:100A90005040A9F79E3F510580F00C9464050C94DA
:100AA000AF055F3FE4F3983ED4F38695779567955D
:100AB000B795F795E7959F5FC1F7FE2B880F911DBE
:100AC0009695879597F9089597F99F6780E870E064
:100AD00060E008959FEF80EC089500240A941616B4
:100AE000170618060906089500240A94121613061C
:100AF000140605060895092E0394000C11F48823AA
:100B000052F0BB0F40F4BF2B11F460FF04C06F5FC5
:100B10007F4F8F4F9F4F089557FD9058440F551F9B
:100B200059F05F3F71F04795880F97FB991F61F06F
:100B30009F3F79F087950895121613061406551FE6
:100B4000F2CF4695F1DF08C0161617061806991F52
:100B5000F1CF86957105610508940895E894BB2747
:100B600066277727CB0197F908952F923F924F92EE
:100B70005F926F927F928F929F92AF92BF92CF922D
:100B8000DF92EF92FF920F931F93CF93DF93CDB736
:100B9000DEB7CA1BDB0B0FB6F894DEBF0FBECDBFAE
:100BA00009942A88398848885F846E847D848C847F
:100BB0009B84AA84B984C884DF80EE80FD800C8188
:100BC0001B81AA81B981CE0FD11D0FB6F894DEBF6B
:100BD0000FBECDBFED0108955058BB27AA270E9434
:100BE00004060C947B050E946D0538F00E94740584
:100BF00020F039F49F3F19F426F40C946A050EF4A2
:100C0000E095E7FB0C946405E92F0E948C0558F3EE
:100C1000BA17620773078407950720F079F4A6F5E1
:100C20000C94AE050EF4E0950B2EBA2FA02D0B01FF
:100C3000B90190010C01CA01A0011124FF27591B21
:100C400099F0593F50F4503E68F11A16F040A22F27
:100C5000232F342F4427585FF3CF46953795279598
:100C6000A795F0405395C9F77EF41F16BA0B620B97
:100C7000730B840BBAF09150A1F0FF0FBB1F661FDE
:100C8000771F881FC2F70EC0BA0F621F731F841F21
:100C900048F4879577956795B795F7959E3F08F047
:100CA000B0CF9395880F08F09927EE0F9795879509
:100CB00008950E9460066894B1110C94AF050895E0
:100CC0000E94940588F09F5798F0B92F9927B75143
:100CD000B0F0E1F0660F771F881F991F1AF0BA95E0
:100CE000C9F714C0B13091F00E94AE05B1E008958B
:100CF0000C94AE05672F782F8827B85F39F0B93F7D
:100D0000CCF3869577956795B395D9F73EF4909592
:100D10008095709561957F4F8F4F9F4F08950E94EA
:100D2000D30408F48FEF089597FB072E16F4009470
:100D300007D077FD09D00E94CA0607FC05D03EF413
:100D4000909581959F4F0895709561957F4F089577
:100D5000A1E21A2EAA1BBB1BFD010DC0AA1FBB1FBF
:100D6000EE1FFF1FA217B307E407F50720F0A21B31
:100D7000B30BE40BF50B661F771F881F991F1A949E
:100D800069F760957095809590959B01AC01BD01C8
:100D9000CF010895AA1BBB1B51E107C0AA1FBB1FAF
:100DA000A617B70710F0A61BB70B881F991F5A95F7
:100DB000A9F780959095BC01CD010895EE0FFF1F16
:100DC0000590F491E02D09940F931F93CF93DF9337
:100DD0008230910510F482E090E0E0916301F0919F
:100DE000640130E020E0B0E0A0E0309799F42115F4
:100DF000310509F44AC0281B390B24303105D8F5D8
:100E00008A819B816115710589F1FB01938382833E
:100E1000FE0111C040815181028113814817590799
:100E2000E0F04817590799F4109761F012960C9367
:100E3000129713961C933296CF01DF91CF911F9199
:100E40000F9108950093630110936401F4CF21156D
:100E5000310551F04217530738F0A901DB019A011F
:100E6000BD01DF01F801C1CFEF01F9CF909364011B
:100E700080936301CDCFFE01E20FF31F8193919325
:100E80002250310939832883D7CF209161013091D5
:100E90006201232B41F42091020130910301309330
:100EA000620120936101209100013091010121151F
:100EB000310541F42DB73EB7409104015091050131
:100EC000241B350BE0916101F0916201E217F307F9
:100ED000A0F42E1B3F0B2817390778F0AC014E5FAA
:100EE0005F4F2417350748F04E0F5F1F5093620184
:100EF00040936101819391939FCFF0E0E0E09CCF1C
:100F0000CF93DF930097E9F0FC01329713821282AE
:100F1000A0916301B0916401ED0130E020E01097F1
:100F2000A1F420813181820F931F209161013091C2
:100F300062012817390709F061C0F0936201E0935C
:100F40006101DF91CF910895EA01CE17DF07E8F53F
:100F50004A815B819E0141155105B1F7E901FB838F
:100F6000EA8349915991C40FD51FEC17FD0761F42D
:100F7000808191810296840F951FE901998388836E
:100F8000828193819B838A83F0E0E0E012968D91C9
:100F90009C9113970097B9F52D913C911197CD0134
:100FA0000296820F931F20916101309162012817F0
:100FB000390739F6309751F51092640110926301A8
:100FC000B0936201A0936101BCCFD383C2834081FF
:100FD0005181840F951FC817D90761F44E5F5F4F89
:100FE00088819981480F591F518340838A819B8151
:100FF000938382832115310509F0B0CFF09364010A
:10100000E09363019ECFFD01DC01C0CF1382128209
:10101000D7CFB0E0A0E0EFE0F8E00C94B7058C018A
:10102000009751F4CB010E94E4068C01C801CDB7B2
:10103000DEB7E0E10C94D305FC01E60FF71F9C013D
:1010400022503109E217F30708F49DC0D901CD9170
:10105000DC911197C617D70798F0C530D10530F34A
:10106000CE0104978617970708F3C61BD70B229764
:10107000C193D1936D937C93CF010E948007D6CF0B
:101080005B01AC1ABD0A4C018C0E9D1EA091630140
:10109000B0916401512C412CF12CE12C109731F5C9
:1010A00080916101909162018815990509F05CC0F9
:1010B0004616570608F058C0809100019091010132
:1010C000009741F48DB79EB74091040150910501FE
:1010D000841B950BE817F90708F055C0F0936201DF
:1010E000E0936101F90171836083A0CF8D919C91A0
:1010F000119712966C90129713967C901397A815DF
:10110000B90559F56C0142E0C40ED11CCA14DB04C8
:1011100020F1AC014A195B09DA011296159780F0AB
:101120006282738251834083D9016D937C93E11471
:10113000F10471F0D7011396FC93EE93129776CFDA
:1011400022968C0F9D1FF90191838083F301EFCFCD
:10115000F0936401E093630169CF4816590608F4DF
:101160002C017D01D3019ACFCB010E94E4067C01C2
:10117000009749F0AE01B8010E94C608C8010E945C
:101180008007870153CF10E000E050CFFB01DC0166
:1011900002C001900D9241505040D8F70895FB01D4
:1011A000DC018D91019080190110D9F3990B0895FC
:1011B000FB01DC0101900D920020E1F7089510E0A1
:1011C000C2E6D0E004C0FE010E94DE062196C336CE
:0811D000D107C9F7F894FFCF25
:1011D800000065018000706C6179696E670070615C
:0411E80075736500B6
:00000001FF
