:100000000C9463000C948B000C948B000C948B006C
:100010000C948B000C948B000C948B000C948B0034
:100020000C948B000C948B000C948B000C948B0024
:100030000C948B000C948B000C948B000C948B0014
:100040000C94C1010C948B000C948B000C948B00CD
:100050000C948B000C948B000C948B000C948B00F4
:100060000C948B000C948B000000000023002600F1
:10007000290000000008000201000003040700003E
:1000800000000000000000000000250028002B00F8
:1000900000000000240027002A00040404040404D3
:1000A0000404020202020202030303030303010227
:1000B00004081020408001020408102001020408F6
:1000C00010202C04930411241FBECFEFD8E0DEBF14
:1000D000CDBF11E0A0E0B1E0E0EDFFE002C005908F
:1000E0000D92A431B107D9F721E0A4E1B1E001C03C
:1000F0001D92AF35B207E1F710E0C2E6D0E004C0D0
:100100002197FE010E94DA05C136D107C9F70E9486
:100110000B020C94DB070C94000090E0FC01E2550C
:10012000FF4F249186569F4FFC018491882399F0BC
:1001300090E0880F991FFC01E057FF4FA591B49103
:10014000FC01EA57FF4F859194918FB7F894EC9199
:10015000E22BEC938FBF089580E480937C00809124
:100160007A00806480937A0080917A0086FDFCCFCB
:1001700080917800909179000895833081F028F47F
:10018000813099F08230A9F008958730A9F0883045
:10019000C9F08430B1F4809180008F7D03C08091DC
:1001A00080008F7780938000089584B58F7784BD19
:1001B000089584B58F7DFBCF8091B0008F778093B9
:1001C000B00008958091B0008F7DF9CF1F93CF9339
:1001D000DF93282F30E0F901EE58FF4F8491F901A9
:1001E000E255FF4FD491F901E656FF4FC491CC235D
:1001F000A9F0162F81110E94BD00EC2FF0E0EE0F48
:10020000FF1FEA57FF4FA591B4918FB7F894EC9177
:10021000111108C0D095DE23DC938FBFDF91CF9101
:100220001F910895DE2BF8CFCF93DF93C1E2D1E089
:1002300060E08A810E94E6001AA260E08C810E9440
:10024000E6001BA260E08E810E94E6001CA2DF9106
:10025000CF9108953FB7F8948091190190911A01B8
:10026000A0911B01B0911C0126B5A89B05C02F3F92
:1002700019F00196A11DB11D3FBFBA2FA92F982FCC
:100280008827BC01CD01620F711D811D911D42E0C7
:10029000660F771F881F991F4A95D1F708952FB7CA
:1002A000F894609115017091160180911701909159
:1002B00018012FBF0895CF93DF93EC018091550172
:1002C00090915601009759F02091570130915801B3
:1002D0002C173D0720F081E0DF91CF910895BE01FA
:1002E0006F5F7F4F0E940507009789F0909356013A
:1002F00080935501D0935801C09357012091590123
:1003000030915A01232B39F7FC011082E4CF80E0B1
:10031000E3CF0F931F93CF93DF938C01EC010990F0
:100320000020E9F72197C81BD90BCE010E945B0181
:100330002091550130915601811117C021153105C9
:1003400019F0C9010E947C061092560110925501C5
:1003500010925A01109259011092580110925701AF
:10036000DF91CF911F910F910895D0935A01C093BF
:100370005901B801C901DF91CF911F910F910C94E0
:10038000D4071F920F920FB60F9211242F933F9311
:100390008F939F93AF93BF93809115019091160116
:1003A000A0911701B09118013091140123E0230F9F
:1003B0002D3758F50196A11DB11D2093140180938E
:1003C000150190931601A0931701B0931801809125
:1003D000190190911A01A0911B01B0911C01019685
:1003E000A11DB11D8093190190931A01A0931B01C7
:1003F000B0931C01BF91AF919F918F913F912F912D
:100400000F900FBE0F901F90189526E8230F0296AD
:10041000A11DB11DD2CF789484B5826084BD84B50E
:10042000816084BD85B5826085BD85B5816085BDEF
:1004300080916E00816080936E00109281008091A7
:10044000810082608093810080918100816080932F
:100450008100809180008160809380008091B10054
:1004600084608093B1008091B00081608093B0007F
:1004700080917A00846080937A0080917A00826013
:1004800080937A0080917A00816080937A008091D5
:100490007A00806880937A001092C1000E94AC00BC
:1004A000BC01990F880B990B6115710581059105A8
:1004B00011F00E9437050E94AC0045E0442E512CFB
:1004C000612C712C01E050E0252E50E0352E11E01A
:1004D000C4E6D0E08091590190915A01892BD1F066
:1004E0006AE071E080915501909156010E94CB071E
:1004F000892B81F480913D01882361F08EE091E0A9
:100500000E94890110924601109247011092480101
:100510000E9414018091590190915A01892B09F48C
:100520005FC06EE071E080915501909156010E948C
:10053000CB07892B09F054C080913D01882309F431
:1005400031C180914301882309F404C180914401A1
:10055000882309F4FFC080914501882309F4FAC07B
:1005600010934601D0934A01C0934901D0935001A2
:10057000C0934F010E944F0160933001709331018D
:10058000809332019093330110934701D0934C0133
:10059000C0934B01D0935201C09351010E944F016F
:1005A0006093340170933501809336019093370145
:1005B00010934801D0934E01C0934D01D093540144
:1005C000C09353010E944F01609338017093390129
:1005D00080933A0190933B018AE091E00E94890167
:1005E00010923E0110923D0110923F011092400185
:1005F0001092410110924201C0902101D09022013D
:100600000D2C000CEE08FF0880912C0190912D011B
:10061000A0912E01B0912F01C80ED91EEA1EFB1E1B
:100620000E944F01C616D706E806F90630F520915C
:10063000290130912A013327F901EE58FF4F8491A7
:10064000F901E255FF4FF490F901E656FF4FE490AF
:10065000EE2079F081110E94BD00EE2DF0E0EE0F4A
:10066000FF1FE859FF4FA591B491EC91FE2281E064
:1006700009F480E0817080932B0180912B0190918F
:100680003C019111CBC0882361F010933D010E9481
:100690004F0160932C0170932D0180932E01909354
:1006A0002F0180912B0180933C0181E2E82E81E0B3
:1006B000F82E5701D12CC12CF70185A1882321F1F7
:1006C0000E944F01F50180A491A4F601EF5DFE4F59
:1006D0002785308941895289621B730B840B950BE6
:1006E000F50126A537A5280D391D50E040E00E94F0
:1006F000A905940150E040E0F701621773078407F1
:10070000950708F0A7C002A3FFEFEF1AFF0A22E047
:10071000A20EB11C34E0C30ED11C8CE0C816D1046B
:1007200059F660914301809123010E94E600609197
:100730004401809125010E94E6006091450180916D
:1007400027010E94E6002114310409F4C3CE0E945F
:100750000000C0CE0E9414010E942A016B017C019E
:1007600034EF832E99249394A12CB12C0E942A015A
:100770006C197D098E099F09683E734081059105BA
:10078000A8F321E0821A9108A108B10838EEC30E3F
:1007900033E0D31EE11CF11C81149104A104B104C7
:1007A00029F71ECF0E944F01C0901D01D0901E015D
:1007B000E0901F01F09020016C197D098E099F09BE
:1007C000653671058105910508F40ACF0E94E80499
:1007D000A30192010E94400563307105A0F49B01C2
:1007E0002F5D3E4F7901F901D2A0D0266F5F7F4F78
:1007F000660F771FFB01EF5DFE4F6D2D80810E941C
:10080000E600F701D2A20E944F0160931D01709390
:100810001E0180931F0190932001E2CE8823B9F03E
:100820000E944F01C0902C01D0902D01E0902E012C
:10083000F0902F016C197D098E099F0960933F018B
:100840007093400180934101909342012ACF10930D
:100850003E0127CF12A258CFCF93DF9383E00E94AF
:100860008D0082E00E948D0084E00E948D0083E074
:1008700090E0909324018093230182E090E0909394
:10088000260180932501C4E0D0E0D0932801C093D5
:10089000270185E090E090932A01809329018FE061
:1008A00090E0909322018093210110922C011092EC
:1008B0002D0110922E0110922F01109256011092CC
:1008C0005501109258011092570110925A0110923E
:1008D000590184E090E00E945B0120915501309124
:1008E0005601811115C02115310519F0C9010E9469
:1008F0007C06109256011092550110925A011092E6
:1009000059011092580110925701DF91CF9108952B
:10091000D0935A01C09359016EE071E0C901DF9193
:10092000CF910C94D4078091550190915601009776
:1009300011F00C947C0608958F929F92AF92BF9213
:10094000CF92DF92EF92FF92CF93DF93EC01688119
:1009500079818A819B81611571058105910521F459
:1009600064E279ED8BE597E02DE133EF41E050E073
:100970000E94400549015A019B01AC01A7EAB1E47C
:100980000E945F056B017C01ACEEB4EFA501940100
:100990000E946D05C60ED71EE81EF91EF7FE06C0A2
:1009A00081E0C81AD108E10880E8F80AC882D98233
:1009B000EA82FB82C701B6019F77DF91CF91FF905A
:1009C000EF90DF90CF90BF90AF909F908F90089561
:1009D0008F929F92AF92BF92CF92DF92EF92FF924F
:1009E00060910001709101018091020190910301D9
:1009F000611571058105910521F464E279ED8BE5BE
:100A000097E02DE133EF41E050E00E9440054901BD
:100A10005A019B01AC01A7EAB1E40E945F056B019A
:100A20007C01ACEEB4EFA50194010E946D05C60EE9
:100A3000D71EE81EF91EF7FE06C081E0C81AD108CD
:100A4000E10880E8F80AC0920001D0920101E0922A
:100A50000201F0920301C701B6019F77FF90EF906A
:100A6000DF90CF90BF90AF909F908F90089560934C
:100A70000001709301018093020190930301089596
:100A8000052E97FB1EF400940E94570557FD07D0D2
:100A90000E94A90507FC03D04EF40C94570550950D
:100AA0004095309521953F4F4F4F5F4F089590955A
:100AB0008095709561957F4F8F4F9F4F08950E944D
:100AC000CB05A59F900DB49F900DA49F800D911D07
:100AD00011240895B7FF0C945F050E945F05821BE7
:100AE000930B08952F923F924F925F926F927F9255
:100AF0008F929F92AF92BF92CF92DF92EF92FF922E
:100B00000F931F93CF93DF93CDB7DEB7CA1BDB0BD9
:100B10000FB6F894DEBF0FBECDBF09942A8839887E
:100B200048885F846E847D848C849B84AA84B98485
:100B3000C884DF80EE80FD800C811B81AA81B98191
:100B4000CE0FD11D0FB6F894DEBF0FBECDBFED01A5
:100B50000895A1E21A2EAA1BBB1BFD010DC0AA1FFE
:100B6000BB1FEE1FFF1FA217B307E407F50720F016
:100B7000A21BB30BE40BF50B661F771F881F991F91
:100B80001A9469F760957095809590959B01AC01DA
:100B9000BD01CF010895A29FB001B39FC001A39FE3
:100BA000700D811D1124911DB29F700D811D1124A6
:100BB000911D0895EE0FFF1F0590F491E02D09940B
:100BC0000F931F93CF93DF938230910510F482E04F
:100BD00090E0E0915D01F0915E0130E020E0B0E056
:100BE000A0E0309799F42115310509F44AC0281B7B
:100BF000390B24303105D8F58A819B816115710547
:100C000089F1FB0193838283FE0111C040815181F0
:100C10000281138148175907E0F04817590799F4E2
:100C2000109761F012960C93129713961C933296BC
:100C3000CF01DF91CF911F910F91089500935D0136
:100C400010935E01F4CF2115310551F0421753077F
:100C500038F0A901DB019A01BD01DF01F801C1CF24
:100C6000EF01F9CF90935E0180935D01CDCFFE013E
:100C7000E20FF31F81939193225031093983288326
:100C8000D7CF20915B0130915C01232B41F420915F
:100C900006013091070130935C0120935B012091A4
:100CA0000401309105012115310541F42DB73EB7FE
:100CB0004091080150910901241B350BE0915B0123
:100CC000F0915C01E217F307A0F42E1B3F0B2817ED
:100CD000390778F0AC014E5F5F4F2417350748F0B5
:100CE0004E0F5F1F50935C0140935B018193919382
:100CF0009FCFF0E0E0E09CCFCF93DF930097E9F047
:100D0000FC01329713821282A0915D01B0915E01C5
:100D1000ED0130E020E01097A1F420813181820FB5
:100D2000931F20915B0130915C012817390709F06E
:100D300061C0F0935C01E0935B01DF91CF91089576
:100D4000EA01CE17DF07E8F54A815B819E01411574
:100D50005105B1F7E901FB83EA8349915991C40F29
:100D6000D51FEC17FD0761F4808191810296840FF5
:100D7000951FE90199838883828193819B838A836C
:100D8000F0E0E0E012968D919C9113970097B9F5F1
:100D90002D913C911197CD010296820F931F2091C6
:100DA0005B0130915C012817390739F6309751F50E
:100DB00010925E0110925D01B0935C01A0935B0103
:100DC000BCCFD383C28340815181840F951FC81744
:100DD000D90761F44E5F5F4F88819981480F591F91
:100DE000518340838A819B819383828321153105BE
:100DF00009F0B0CFF0935E01E0935D019ECFFD015D
:100E0000DC01C0CF13821282D7CFB0E0A0E0EBE0CC
:100E1000F7E00C9474058C01009751F4CB010E940B
:100E2000E0058C01C801CDB7DEB7E0E10C94900578
:100E3000FC01E60FF71F9C0122503109E217F3076E
:100E400008F49DC0D901CD91DC911197C617D70741
:100E500098F0C530D10530F3CE0104978617970777
:100E600008F3C61BD70B2297C193D1936D937C9344
:100E7000CF010E947C06D6CF5B01AC1ABD0A4C01A3
:100E80008C0E9D1EA0915D01B0915E01512C412CF4
:100E9000F12CE12C109731F580915B0190915C0170
:100EA0008815990509F05CC04616570608F058C029
:100EB0008091040190910501009741F48DB79EB790
:100EC0004091080150910901841B950BE817F9071F
:100ED00008F055C0F0935C01E0935B01F901718368
:100EE0006083A0CF8D919C91119712966C90129770
:100EF00013967C901397A815B90559F56C0142E03B
:100F0000C40ED11CCA14DB0420F1AC014A195B09E0
:100F1000DA011296159780F06282738251834083C2
:100F2000D9016D937C93E114F10471F0D70113960C
:100F3000FC93EE93129776CF22968C0F9D1FF901AA
:100F400091838083F301EFCFF0935E01E0935D0125
:100F500069CF4816590608F42C017D01D3019ACFB8
:100F6000CB010E94E0057C01009749F0AE01B80179
:100F70000E94C207C8010E947C06870153CF10E07F
:100F800000E050CFFB01DC0102C001900D92415006
:100F90005040D8F70895FB01DC018D910190801934
:100FA0000110D9F3990B0895FB01DC0101900D921A
:100FB0000020E1F7089510E0C2E6D0E004C0FE0191
:100FC0000E94DA052196C336D107C9F7F894FFCFFE
:100FD0000100000000005F01800077696E00706C06
:040FE0006179000033
:00000001FF
