:100000000C9463000C948B000C948B000C948B006C
:100010000C948B000C948B000C948B000C948B0034
:100020000C948B000C948B000C948B000C948B0024
:100030000C948B000C948B000C948B000C948B0014
:100040000C94A4010C948B000C948B000C948B00EA
:100050000C948B000C948B000C948B000C948B00F4
:100060000C948B000C948B000000000023002600F1
:10007000290000000008000201000003040700003E
:1000800000000000000000000000250028002B00F8
:1000900000000000240027002A00040404040404D3
:1000A0000404020202020202030303030303010227
:1000B00004081020408001020408102001020408F6
:1000C00010205D05C00511241FBECFEFD8E0DEBFB4
:1000D000CDBF11E0A0E0B1E0E6EAF5E102C0059095
:1000E0000D92A034B107D9F721E0A0E4B1E001C03E
:1000F0001D92A339B207E1F710E0C2E6D0E004C0D8
:100100002197FE010E94C508C136D107C9F70E9498
:10011000EE010C94C60A0C94000090E0FC01E2553C
:10012000FF4F249186569F4FFC018491882399F0BC
:1001300090E0880F991FFC01E057FF4FA591B49103
:10014000FC01EA57FF4F859194918FB7F894EC9199
:10015000E22BEC938FBF0895833081F028F4813037
:1001600099F08230A9F008958730A9F08830C9F05D
:100170008430B1F4809180008F7D03C08091800035
:100180008F7780938000089584B58F7784BD08951C
:1001900084B58F7DFBCF8091B0008F778093B000C6
:1001A00008958091B0008F7DF9CF1F93CF93DF9397
:1001B000282F30E0F901EE58FF4F8491F901E25504
:1001C000FF4FD491F901E656FF4FC491CC23A9F01B
:1001D000162F81110E94AC00EC2FF0E0EE0FFF1FF4
:1001E000EA57FF4FA591B4918FB7F894EC91111194
:1001F00008C0D095DE23DC938FBFDF91CF911F9194
:100200000895DE2BF8CFCF93DF93C5E5D1E060E012
:100210008A810E94D5001AA260E08C810E94D500DC
:100220001BA260E08E810E94D5001CA2DF91CF91BD
:1002300008952FB7F894609145017091460180911F
:100240004701909148012FBF0895CF93DF93EC01B0
:100250008091890190918A01009759F020918B013A
:1002600030918C012C173D0720F081E0DF91CF9178
:100270000895BE016F5F7F4F0E94F009009789F0DB
:1002800090938A0180938901D0938C01C0938B0154
:1002900020918D0130918E01232B39F7FC011082C2
:1002A000E4CF80E0E3CF0F931F93CF93DF938C01D4
:1002B000EC0109900020E9F72197C81BD90BCE016A
:1002C0000E9425012091890130918A01811117C076
:1002D0002115310519F0C9010E94670910928A01A0
:1002E0001092890110928E0110928D0110928C0152
:1002F00010928B01DF91CF911F910F910895D093B0
:100300008E01C0938D01B801C901DF91CF911F917A
:100310000F910C94BF0A20918D0130918E01232BF7
:1003200039F421E0FC018081882361F020E00AC0DB
:10033000BC018091890190918A010E94B60A21E056
:10034000892BA1F7822F08951F920F920FB60F925B
:1003500011242F933F938F939F93AF93BF938091DB
:10036000450190914601A0914701B091480130911B
:10037000440123E0230F2D3758F50196A11DB11D2F
:10038000209344018093450190934601A093470137
:10039000B09348018091400190914101A0914201A8
:1003A000B09143010196A11DB11D8093400190932E
:1003B0004101A0934201B0934301BF91AF919F913E
:1003C0008F913F912F910F900FBE0F901F90189516
:1003D00026E8230F0296A11DB11DD2CF789484B5D3
:1003E000826084BD84B5816084BD85B5826085BD31
:1003F00085B5816085BD80916E00816080936E00BF
:1004000010928100809181008260809381008091B0
:100410008100816080938100809180008160809361
:1004200080008091B10084608093B1008091B00021
:1004300081608093B00080917A00846080937A001C
:1004400080917A00826080937A0080917A00816046
:1004500080937A0080917A00806880937A0010926D
:10046000C10080E480937C0080917A008064809356
:100470007A0080917A0086FDFCCF809178006091AF
:100480007900762F682F072E000C880B990B6115C9
:1004900071058105910511F00E946406A4E14A2EC0
:1004A000512C612C712CF8EC2F2E312C04E110E032
:1004B0008AE091E00E948B01882311F18091720102
:1004C0008823F1F083E191E00E94530182E090E003
:1004D00090935401809353010E94190160934F013E
:1004E0007093500180935101909352010E94030137
:1004F00061E080915B010E94D50081E080937901E9
:1005000083E191E00E948B01882309F499C08091D6
:100510007201882309F446C08091530190915401DF
:10052000019663E070E00E949D08EC0190935401F5
:10053000809353010E94030110927A0110927B0173
:1005400010927C01C330D10568F5FE01EE0FFF1F4C
:10055000E95AFE4F61E080810E94D500FE01EB5A0E
:10056000FE4F81E082A385A3FE01EE0FFF1FE3583B
:10057000FE4F80E991E091838083FE01EE0FFF1F23
:10058000ED57FE4F84E690E0918380830E9419012D
:10059000CC0FDD1FCC0FDD1FCB5ADE4F6F87788B62
:1005A000898B9A8B8091730190917401A091750150
:1005B000B09176018D3B9240A105B10508F440C091
:1005C0008DE191E00E9453010E94190160934F0157
:1005D00070935001809351019093520110927A01CF
:1005E00010927B0110927C010E940301C091530183
:1005F000D0915401C330D10518F5FE01EB5AFE4FDE
:1006000081E085A3FE01EE0FFF1FE358FE4F8EE150
:1006100090E091838083FE01EE0FFF1FED57FE4FA8
:1006200082E390E0918380830E941901CC0FDD1F4B
:10063000CC0FDD1FCB5ADE4F6F87788B898B9A8B5F
:100640008DE191E00E948B01882309F443C00E9450
:100650001901605D774081099109C0904F01D090E8
:100660005001E0905101F0905201C616D706E806FD
:10067000F90680F510927A0110927B0110927C01AC
:1006800086E291E00E9453010E94150623E030E0CB
:1006900040E050E00E94910770934E0160934D013D
:1006A0000E941506A30192010E9491070E94740600
:1006B0006093490170934A0180934B0190934C01E0
:1006C0000E94190160934F01709350018093510172
:1006D0009093520186E291E00E948B01882309F4F5
:1006E00053C00E94030160914F01709150018091AD
:1006F0005101909152010E9472064B015C010E94CF
:100700001901C0904901D0904A01E0904B01F0904E
:100710004C010E947206A70196010E942B089B01C2
:10072000AC01C501B4010E946D0687FF19C020E02D
:1007300030E046E954E4C701B6010E949808181653
:100740000CF037C18EE291E00E9453010E94190122
:1007500060934F0170935001809351019093520127
:10076000C0914D01D0914E01C330D10568F4FE0116
:10077000EE0FFF1FE95AFE4F61E080810E94D50015
:10078000CB5ADE4F81E08AA38EE291E00E948B017A
:10079000882391F1C0915301D0915401E0904D0113
:1007A000F0904E01CE15DF0509F02CC1C330D10504
:1007B000F8F4FE01EB5AFE4F81E085A3FE01EE0F37
:1007C000FF1FE358FE4F11830083FE01EE0FFF1F52
:1007D000ED57FE4F118300830E941901CC0FDD1FDE
:1007E000CC0FDD1FCB5ADE4F6F87788B898B9A8BAE
:1007F00085E391E00E94530185E391E00E948B0123
:100800008823F9F00E941901685B7B4081099109F6
:10081000C0904F01D0905001E0905101F0905201F2
:10082000C616D706E806F90660F48AE091E00E9451
:10083000530110927A0110927B0110927C010E9468
:1008400003011092720110927101109273011092C3
:1008500074011092750110927601C0905501D090EC
:1008600056010D2C000CEE08FF088091600190915C
:100870006101A0916201B0916301C80ED91EEA1E08
:10088000FB1E0E941901C616D706E806F90630F5C8
:1008900020915D0130915E013327F901EE58FF4F41
:1008A0008491F901E255FF4FC491F901E656FF4FDB
:1008B000D491DD2379F081110E94AC00ED2FF0E09E
:1008C000EE0FFF1FE859FF4FA591B491EC91CE2395
:1008D00081E009F480E0817080935F0180915F0185
:1008E000909170019111CAC0882369F081E08093D2
:1008F00071010E94190160936001709361018093FE
:1009000062019093630180915F0180937001C5E55E
:10091000D1E06E01F12CE12C992493948DA18823D0
:1009200019F10E941901F601A0A4B1A4F701EB5A34
:10093000FE4F2785308941895289621B730B840BD6
:10094000950BF60126A537A52A0D3B1D50E040E08A
:100950000E94FA07950150E040E062177307840790
:10096000950708F0A8C09AA22196F2E0CF0ED11CFC
:1009700024E0E20EF11C8CE0E816F10479F66091B7
:100980007701809157010E94D50060917801809194
:1009900059010E94D5006091790180915B010E940C
:1009A000D500E0E0F0E0EF2B09F482CD0E940000DA
:1009B0007ACDC0914D01D0914E010E9419016093F2
:1009C0004F01709350018093510190935201CE01D9
:1009D000019663E070E00E949D0890934E01809321
:1009E0004D012DEC3CEC4CE85FE3C701B6010E94E1
:1009F000D3066093490170934A0180934B01909311
:100A00004C01AECE93E0E916F10400F5F701EB5A84
:100A1000FE4F81E085A3F701EE0FFF1FE358FE4F65
:100A200011830083F701EE0FFF1FED57FE4F118377
:100A300000830E941901F701EE0FFF1FEE0FFF1F49
:100A4000EB5AFE4F6787708B818B928BC330D10539
:100A500008F0CECEFE01EB5AFE4F81E085A3FE01E9
:100A6000EE0FFF1FE358FE4F31822082FE01EE0F92
:100A7000FF1FED57FE4F31822082AECE8823B9F0A2
:100A80000E941901C0906001D0906101E090620164
:100A9000F09063016C197D098E099F0960937301C1
:100AA0007093740180937501909376012CCF81E04F
:100AB0008093720128CF1AA257CF83E00E948D0045
:100AC00082E00E948D0084E00E948D0083E090E02F
:100AD000909358018093570182E090E090935A01DF
:100AE0008093590184E090E090935C0180935B01D6
:100AF00085E090E090935E0180935D018FE090E04F
:100B000090935601809355011092600110926101FB
:100B1000109262011092630110928A011092890171
:100B200010928C0110928B0110928E0110928D0107
:100B300088E090E00E9425012091890130918A018E
:100B4000811113C02115310519F0C9010E946709EF
:100B500010928A011092890110928E0110928D01DB
:100B600010928C0110928B01089588E090E0909390
:100B70008E0180938D016AE071E0C9010C94BF0A77
:100B80008091890190918A01009711F00C94670976
:100B900008958F929F92AF92BF92CF92DF92EF9281
:100BA000FF92CF93DF93EC01688179818A819B81E9
:100BB000611571058105910521F464E279ED8BE5FC
:100BC00097E02DE133EF41E050E00E9491074901A9
:100BD0005A019B01AC01A7EAB1E40E94B0076B0186
:100BE0007C01ACEEB4EFA50194010E94BE07C60ED5
:100BF000D71EE81EF91EF7FE06C081E0C81AD1080C
:100C0000E10880E8F80AC882D982EA82FB82C7013B
:100C1000B6019F77DF91CF91FF90EF90DF90CF905B
:100C2000BF90AF909F908F9008958F929F92AF92B8
:100C3000BF92CF92DF92EF92FF926091000170918C
:100C400001018091020190910301611571058105F7
:100C5000910521F464E279ED8BE597E02DE133EF26
:100C600041E050E00E94910749015A019B01AC010B
:100C7000A7EAB1E40E94B0076B017C01ACEEB4EFCF
:100C8000A50194010E94BE07C60ED71EE81EF91EDC
:100C9000F7FE06C081E0C81AD108E10880E8F80A2A
:100CA000C0920001D0920101E0920201F092030192
:100CB000C701B6019F77FF90EF90DF90CF90BF9074
:100CC000AF909F908F900895609300017093010101
:100CD000809302019093030108950E94AF0608F4E7
:100CE00081E00895E89409C097FB3EF490958095C3
:100CF000709561957F4F8F4F9F4F9923A9F0F92FE2
:100D000096E9BB279395F695879577956795B7955F
:100D1000F111F8CFFAF4BB0F11F460FF1BC06F5F45
:100D20007F4F8F4F9F4F16C0882311F096E911C057
:100D3000772321F09EE8872F762F05C0662371F078
:100D400096E8862F70E060E02AF09A95660F771F8C
:100D5000881FDAF7880F9695879597F90895990F68
:100D60000008550FAA0BE0E8FEEF16161706E80775
:100D7000F907C0F012161306E407F50798F0621B96
:100D8000730B840B950B39F40A2661F0232B242B6B
:100D9000252B21F408950A2609F4A140A6958FEF8A
:100DA000811D811D08950E94E6060C9457070E943C
:100DB000490738F00E94500720F0952311F00C9459
:100DC00040070C94460711240C948B070E94680777
:100DD00070F3959FC1F3950F50E0551F629FF0018E
:100DE000729FBB27F00DB11D639FAA27F00DB11DA7
:100DF000AA1F649F6627B00DA11D661F829F222730
:100E0000B00DA11D621F739FB00DA11D621F839FB6
:100E1000A00D611D221F749F3327A00D611D231F8C
:100E2000849F600D211D822F762F6A2F11249F57DA
:100E300050409AF0F1F088234AF0EE0FFF1FBB1FDD
:100E4000661F771F881F91505040A9F79E3F51059C
:100E500080F00C9440070C948B075F3FE4F3983EBE
:100E6000D4F3869577956795B795F795E7959F5F46
:100E7000C1F7FE2B880F911D9695879597F90895D8
:100E800097F99F6780E870E060E008959FEF80EC3D
:100E9000089500240A9416161706180609060895E0
:100EA00000240A9412161306140605060895092E46
:100EB0000394000C11F4882352F0BB0F40F4BF2BB5
:100EC00011F460FF04C06F5F7F4F8F4F9F4F0895F5
:100ED00057FD9058440F551F59F05F3F71F04795EB
:100EE000880F97FB991F61F09F3F79F087950895D0
:100EF000121613061406551FF2CF4695F1DF08C0EF
:100F0000161617061806991FF1CF8695710561050B
:100F100008940895E894BB2766277727CB0197F9B3
:100F20000895052E97FB1EF400940E94A80757FD14
:100F300007D00E94FA0707FC03D04EF40C94A807D0
:100F400050954095309521953F4F4F4F5F4F0895F5
:100F500090958095709561957F4F8F4F9F4F089525
:100F60000E941C08A59F900DB49F900DA49F800D1A
:100F7000911D11240895B7FF0C94B0070E94B0078B
:100F8000821B930B08952F923F924F925F926F9224
:100F90007F928F929F92AF92BF92CF92DF92EF9209
:100FA000FF920F931F93CF93DF93CDB7DEB7CA1B8A
:100FB000DB0B0FB6F894DEBF0FBECDBF09942A88B5
:100FC000398848885F846E847D848C849B84AA845D
:100FD000B984C884DF80EE80FD800C811B81AA81EA
:100FE000B981CE0FD11D0FB6F894DEBF0FBECDBFB5
:100FF000ED010895A1E21A2EAA1BBB1BFD010DC035
:10100000AA1FBB1FEE1FFF1FA217B307E407F507B8
:1010100020F0A21BB30BE40BF50B661F771F881F94
:10102000991F1A9469F760957095809590959B012A
:10103000AC01BD01CF010895A29FB001B39FC001D3
:10104000A39F700D811D1124911DB29F700D811DF4
:101050001124911D08955058BB27AA270E944308C8
:101060000C9457070E94490738F00E94500720F05F
:1010700039F49F3F19F426F40C9446070EF4E095DA
:10108000E7FB0C944007E92F0E94680758F3BA1752
:10109000620773078407950720F079F4A6F50C948E
:1010A0008A070EF4E0950B2EBA2FA02D0B01B90183
:1010B00090010C01CA01A0011124FF27591B99F0CE
:1010C000593F50F4503E68F11A16F040A22F232FDA
:1010D000342F4427585FF3CF469537952795A7952A
:1010E000F0405395C9F77EF41F16BA0B620B730BD1
:1010F000840BBAF09150A1F0FF0FBB1F661F771F42
:10110000881FC2F70EC0BA0F621F731F841F48F4F6
:10111000879577956795B795F7959E3F08F0B0CF7F
:101120009395880F08F09927EE0F97958795089566
:101130000E94AF0608F48FEF089597FB072E16F470
:10114000009407D077FD09D00E94B10807FC05D0B4
:101150003EF4909581959F4F0895709561957F4FCE
:101160000895AA1BBB1B51E107C0AA1FBB1FA617EE
:10117000B70710F0A61BB70B881F991F5A95A9F740
:1011800080959095BC01CD010895EE0FFF1F05904D
:10119000F491E02D09940F931F93CF93DF93823046
:1011A000910510F482E090E0E0919101F0919201BC
:1011B00030E020E0B0E0A0E0309799F4211531054F
:1011C00009F44AC0281B390B24303105D8F58A812F
:1011D0009B816115710589F1FB0193838283FE0177
:1011E00011C0408151810281138148175907E0F0F5
:1011F0004817590799F4109761F012960C931297BB
:1012000013961C933296CF01DF91CF911F910F91CE
:1012100008950093910110939201F4CF21153105A7
:1012200051F04217530738F0A901DB019A01BD01C3
:10123000DF01F801C1CFEF01F9CF909392018093C4
:101240009101CDCFFE01E20FF31F819391932250C4
:10125000310939832883D7CF20918F0130919001B4
:10126000232B41F420910601309107013093900126
:1012700020938F0120910401309105012115310542
:1012800041F42DB73EB74091080150910901241B4C
:10129000350BE0918F01F0919001E217F307A0F474
:1012A0002E1B3F0B2817390778F0AC014E5F5F4FBC
:1012B0002417350748F04E0F5F1F5093900140935D
:1012C0008F01819391939FCFF0E0E0E09CCFCF938B
:1012D000DF930097E9F0FC01329713821282A0910C
:1012E0009101B0919201ED0130E020E01097A1F45E
:1012F00020813181820F931F20918F0130919001C5
:101300002817390709F061C0F0939001E0938F012D
:10131000DF91CF910895EA01CE17DF07E8F54A8102
:101320005B819E0141155105B1F7E901FB83EA8319
:1013300049915991C40FD51FEC17FD0761F48081C5
:1013400091810296840F951FE90199838883828198
:1013500093819B838A83F0E0E0E012968D919C91CB
:1013600013970097B9F52D913C911197CD010296F5
:10137000820F931F20918F01309190012817390718
:1013800039F6309751F51092920110929101B09375
:101390009001A0938F01BCCFD383C2834081518140
:1013A000840F951FC817D90761F44E5F5F4F88817E
:1013B0009981480F591F518340838A819B81938370
:1013C00082832115310509F0B0CFF0939201E093AB
:1013D00091019ECFFD01DC01C0CF13821282D7CFD5
:1013E000B0E0A0E0E6EFF9E00C94C5078C010097AF
:1013F00051F4CB010E94CB088C01C801CDB7DEB7F8
:10140000E0E10C94E107FC01E60FF71F9C0122507C
:101410003109E217F30708F49DC0D901CD91DC91A1
:101420001197C617D70798F0C530D10530F3CE0114
:1014300004978617970708F3C61BD70B2297C1930B
:10144000D1936D937C93CF010E946709D6CF5B0146
:10145000AC1ABD0A4C018C0E9D1EA0919101B09159
:101460009201512C412CF12CE12C109731F58091F7
:101470008F01909190018815990509F05CC046167E
:10148000570608F058C0809104019091050100971B
:1014900041F48DB79EB74091080150910901841B1A
:1014A000950BE817F90708F055C0F0939001E09309
:1014B0008F01F90171836083A0CF8D919C91119769
:1014C00012966C90129713967C901397A815B905F5
:1014D00059F56C0142E0C40ED11CCA14DB0420F1A2
:1014E000AC014A195B09DA011296159780F0628205
:1014F000738251834083D9016D937C93E114F1048D
:1015000071F0D7011396FC93EE93129776CF229643
:101510008C0F9D1FF90191838083F301EFCFF0932E
:101520009201E093910169CF4816590608F42C0105
:101530007D01D3019ACFCB010E94CB087C0100979B
:1015400049F0AE01B8010E94AD0AC8010E946709C6
:10155000870153CF10E000E050CFFB01DC0102C057
:1015600001900D9241505040D8F70895FB01DC01E5
:101570008D91019080190110D9F3990B0895FB0109
:10158000DC0101900D920020E1F7089510E0C2E621
:10159000D0E004C0FE010E94C5082196C336D107E1
:0615A000C9F7F894FFCF2B
:1015A6000100000000009301800066696E6973689F
:1015B60065640073656C656374696F6E0073656C52
:1015C600656374656400726F6C6C696E6700726542
:1015D60073756C7400726573756C74446F6E650018
:00000001FF
