:100000000C9463000C948B000C948B000C948B006C
:100010000C948B000C948B000C948B000C948B0034
:100020000C948B000C948B000C948B000C948B0024
:100030000C948B000C948B000C948B000C948B0014
:100040000C94E2020C948B000C94B0020C948A0283
:100050000C948B000C948B000C948B000C948B00F4
:100060000C948B000C948B000000000023002600F1
:10007000290000000008000201000003040700003E
:1000800000000000000000000000250028002B00F8
:1000900000000000240027002A00040404040404D3
:1000A0000404020202020202030303030303010227
:1000B00004081020408001020408102001020408F6
:1000C00010202C03960611241FBECFEFD8E0DEBF10
:1000D000CDBF22E0A8E6B1E001C01D92A635B2076F
:1000E000E1F711E0A0E0B1E0E4EFF5E102C0059036
:1000F0000D92A836B107D9F710E0C2E6D0E004C0EF
:100100002197FE010E94EC08C136D107C9F70E9471
:1001100096030C94ED0A0C94000090E0FC01E2556B
:10012000FF4F249186569F4FFC018491882399F0BC
:1001300090E0880F991FFC01E057FF4FA591B49103
:10014000FC01EA57FF4F859194918FB7F894EC9199
:10015000E22BEC938FBF0895AF92BF92CF92DF92C4
:10016000EF92FF920F931F93CF93DF936C017B016C
:100170008B01040F151FEB015E01AE18BF08C017FD
:10018000D10759F06991D601ED91FC910190F08170
:10019000E02DC6010995892B79F7C501DF91CF9133
:1001A0001F910F91FF90EF90DF90CF90BF90AF9095
:1001B0000895FC01538D448D252F30E0842F90E06D
:1001C000821B930B541710F0CF9608950197089552
:1001D000FC01918D828D981761F0A28DAE0FBF2F1B
:1001E000B11D5D968C91928D9F5F9F73928F90E071
:1001F00008958FEF9FEF0895FC01918D828D9817E0
:1002000031F0828DE80FF11D858D90E008958FEF1C
:100210009FEF0895FC01918D228D892F90E0805CE5
:100220009F4F821B91098F739927089587E791E06B
:100230000E940A0121E0892B09F420E0822F089511
:1002400080E090E0892B29F00E94160181110C9426
:1002500000000895FC01A48DA80FB92FB11DA35A69
:10026000BF4F2C91848D90E001968F739927848FD6
:10027000A689B7892C93A089B1898C9183708064F9
:100280008C93938D848D981306C00288F389E02D9A
:1002900080818F7D80830895EF92FF920F931F934B
:1002A000CF93DF93EC0181E0888F9B8D8C8D981329
:1002B0001AC0E889F989808185FF15C09FB7F89435
:1002C000EE89FF896083E889F98980818370806481
:1002D00080839FBF81E090E0DF91CF911F910F91CC
:1002E000FF90EF900895F62E0B8D10E00F5F1F4FDB
:1002F0000F731127E02E8C8D8E110CC00FB607FCEA
:10030000FACFE889F989808185FFF5CFCE010E9477
:100310002A01F1CFEB8DEC0FFD2FF11DE35AFF4FBA
:10032000F0829FB7F8940B8FEA89FB898081806205
:10033000CFCFCF93DF93EC01888D8823B9F0AA89C2
:10034000BB89E889F9898C9185FD03C0808186FD90
:100350000DC00FB607FCF7CF8C9185FFF2CF8081DF
:1003600085FFEDCFCE010E942A01E9CFDF91CF9129
:100370000895833081F028F4813099F08230A9F01B
:1003800008958730A9F08830C9F08430B1F48091A5
:1003900080008F7D03C0809180008F7780938000E4
:1003A000089584B58F7784BD089584B58F7DFBCF84
:1003B0008091B0008F778093B00008958091B00055
:1003C0008F7DF9CF1F93CF93DF93282F30E0F90172
:1003D000EE58FF4F8491F901E255FF4FD491F90196
:1003E000E656FF4FC491CC23A9F0162F81110E942D
:1003F000B901EC2FF0E0EE0FFF1FEA57FF4FA59178
:10040000B4918FB7F894EC91111108C0D095DE2308
:10041000DC938FBFDF91CF911F910895DE2BF8CF32
:100420002FB7F89460916D0170916E0180916F010A
:10043000909170012FBF0895CF93DF93FC0101903D
:100440000020E9F73197AF01481B590BBC0187E742
:1004500091E00E94AC00EC0142E050E068E171E004
:1004600087E791E00E94AC008C0F9D1FDF91CF9138
:1004700008950F931F93CF93DF938C01EB0180912D
:10048000180290911902009739F020911A023091C8
:100490001B0226173707B8F4BE016F5F7F4F0E941B
:1004A000170A0097E1F09093190280931802D093F5
:1004B0001B02C0931A0220911C0230911D02232BB3
:1004C00011F4FC011082D0931D02C0931C02B801EC
:1004D00080911802909119020E94E60A14C080913E
:1004E000180290911902009711F00E948E09109243
:1004F00019021092180210921D0210921C02109202
:100500001B0210921A0288E192E0DF91CF911F91B5
:100510000F9108951F920F920FB60F9211242F93EF
:100520003F934F935F936F937F938F939F93AF937B
:10053000BF93EF93FF9387E791E00E942A01FF9119
:10054000EF91BF91AF919F918F917F916F915F914B
:100550004F913F912F910F900FBE0F901F901895C4
:100560001F920F920FB60F9211242F938F939F9388
:10057000EF93FF93E0918701F09188018081E091F2
:100580008D01F0918E0182FD1BC0908180919001C0
:100590008F5F8F7320919101821741F0E09190015C
:1005A000F0E0E958FE4F958F80939001FF91EF9115
:1005B0009F918F912F910F900FBE0F901F901895C4
:1005C0008081F4CF1F920F920FB60F9211242F93B8
:1005D0003F938F939F93AF93BF9380916D019091C1
:1005E0006E01A0916F01B091700130916C0123E018
:1005F000230F2D3758F50196A11DB11D20936C01D5
:1006000080936D0190936E01A0936F01B093700180
:100610008091680190916901A0916A01B0916B018C
:100620000196A11DB11D8093680190936901A0936B
:100630006A01B0936B01BF91AF919F918F913F91F0
:100640002F910F900FBE0F901F90189526E8230F43
:100650000296A11DB11DD2CFE7E7F1E0138212820D
:1006600088EE93E0A0E0B0E084839583A683B7830F
:100670008AE091E09183808385EC90E09587848780
:1006800084EC90E09787868780EC90E0918B808B5C
:1006900081EC90E0938B828B82EC90E0958B848B45
:1006A00086EC90E0978B868B118E128E138E148EB3
:1006B00083E00E948D0082E00E948D0084E00E9411
:1006C0008D00EEE1F2E083E090E09383828382E0AC
:1006D00090E09583848384E090E09783868385E02F
:1006E00090E0918780878FE090E0918380831386EC
:1006F000148615861686E8E1F2E0118210821382D4
:1007000012821582148267E070E08BE191E00E9412
:10071000390280E090E8A2E2B4E48093140290935E
:100720001502A0931602B09317020895789484B529
:10073000826084BD84B5816084BD85B5826085BDDD
:1007400085B5816085BD80916E00816080936E006B
:10075000109281008091810082608093810080915D
:10076000810081608093810080918000816080930E
:1007700080008091B10084608093B1008091B000CE
:1007800081608093B00080917A00846080937A00C9
:1007900080917A00826080937A0080917A008160F3
:1007A00080937A0080917A00806880937A0010921A
:1007B000C100E0918701F091880182E08083E0919F
:1007C0008301F09184011082E0918501F09186010E
:1007D0008FEC808310928F01E0918B01F0918C015E
:1007E00086E08083E0918901F0918A0180818061B7
:1007F0008083E0918901F0918A0180818860808303
:10080000E0918901F0918A01808180688083E09184
:100810008901F0918A0180818F7D808383E291E05C
:100820000E941C026624639443E0C42ED12C50E045
:10083000E52E50E0F52E7724739480911C02909160
:100840001D02892B09F42AC16BE171E08091180225
:10085000909119020E94DD0A892B09F0B5C089E246
:1008600091E00E941C020E941002009173011091FD
:1008700074012091750130917601601B710B820B20
:10088000930B0E94A406209114023091150240910E
:100890001602509117020E949D081816C4F5C091C7
:1008A0007101D09172018E010F5F1F4FC330D105CE
:1008B00060F4F801EE0FFF1FE25EFD4F60E0808103
:1008C0000E94E201C25EDD4F1AA2C801B6010E9479
:1008D000A208EC019093720180937101833091051D
:1008E00060F4FC01EE0FFF1FE05EFD4F61E08081D0
:1008F0000E94E201C25EDD4F6AA20E941002609374
:1009000073017093740180937501909376018091C7
:100910003A02882309F451C081E391E00E941C024D
:100920008091710190917201019709F06EC18FE37E
:1009300091E00E941C022DEC3CEC4CE45FE36091E2
:1009400014027091150280911602909117020E9474
:10095000050760931402709315028093160290931A
:10096000170220E030E040E85EE30E9405070E94A5
:100970006E0870924402709349026093480270932B
:100980004F0260934E020E941002609331027093F6
:100990003202809333029093340265E070E08BE47E
:1009A00091E00E9439020E941002609373017093DB
:1009B0007401809375019093760180911C0290914F
:1009C0001D02892B09F46AC06BE471E08091180262
:1009D000909119020E94DD0A892B09F05FC081E520
:1009E00091E00E941C0260911402709115028091A6
:1009F0001602909117029B01AC010E94FB074B016C
:100A00005C0120E030E048E453E40E949D08C8EC1B
:100A1000D0E018162CF4C501B4010E946708EB0160
:100A20000E941002009173011091740120917501D0
:100A300030917601AB01BC01401B510B620B730B73
:100A4000CE01DD0FAA0BBB0B84179507A607B707CE
:100A500028F510924302109244021092450260E081
:100A6000809120020E94E2011092400260E0809199
:100A700022020E94E2011092410260E08091240271
:100A80000E94E2011092420267E070E08BE191E087
:100A90000E94390289E591E00E941C0210923B02FB
:100AA00010923A0210923C0210923D0210923E02C5
:100AB00010923F0280901E0290901F02092C000CA1
:100AC000AA08BB088091290290912A02A0912B02CA
:100AD000B0912C02880E991EAA1EBB1E0E94100205
:100AE00086169706A806B90630F5209126023091A1
:100AF00027023327F901EE58FF4F8491F901E2559F
:100B0000FF4FC491F901E656FF4FD491DD2379F0F0
:100B100081110E94B901ED2FF0E0EE0FFF1FE8599F
:100B2000FF4FA591B491EC91CE2381E009F480E0D0
:100B3000817080932802809128029091390291114E
:100B4000D7C0882361F070923A020E94100260932D
:100B5000290270932A0280932B0290932C02809199
:100B6000280280933902CEE1D2E05E0110E000E07D
:100B70008DA1882319F10E941002F50180A491A48F
:100B8000F801E25EFD4F2785308941895289621B59
:100B9000730B840B950BF50126A537A5280D391D80
:100BA00050E040E00E94B608940150E040E0621737
:100BB00073078407950708F0B7C06AA22196F2E090
:100BC000AF0EB11C0C5F1F4F0C30110589F6609100
:100BD0004002809120020E94E201609141028091D6
:100BE00022020E94E20160914202809124020E944E
:100BF000E201E114F10409F420CE0E9416018823D9
:100C000009F41BCE0E94000018CE84E491E00E94FB
:100C10001C0220E030E040E250E460911402709148
:100C2000150280911602909117020E9405074B0150
:100C30005C0120E030E842E254E40E949F0687FD18
:100C400007C0812C90E8992E92E2A92E94E4B92E47
:100C50008092140290921502A0921602B09217028E
:100C600020E030E040E05FE3C501B4010E940507E9
:100C70000E946E084B01709243027093470260938A
:100C8000460270934D0260934C020E9410026093E2
:100C90002D0270932E0280932F0290933002709257
:100CA0004402909249028092480290924F028092B0
:100CB0004E020E94100260933102709332028093C0
:100CC0003302909334027092450290924B028092CC
:100CD0004A0290925102809250020E941002609348
:100CE000350270933602809337029093380255CEC6
:100CF0008823B9F00E9410020091290210912A0263
:100D000020912B0230912C02601B710B820B930BF4
:100D100060933C0270933D0280933E0290933F02A9
:100D20001ECF70923B021BCF1AA248CF80911802AF
:100D300090911902009711F00C948E0908950E9469
:100D4000E10608F481E00895E89409C097FB3EF4B9
:100D500090958095709561957F4F8F4F9F4F992308
:100D6000A9F0F92F96E9BB279395F6958795779586
:100D70006795B795F111F8CFFAF4BB0F11F460FF46
:100D80001BC06F5F7F4F8F4F9F4F16C0882311F09E
:100D900096E911C0772321F09EE8872F762F05C0B2
:100DA000662371F096E8862F70E060E02AF09A954D
:100DB000660F771F881FDAF7880F9695879597F942
:100DC0000895990F0008550FAA0BE0E8FEEF1616DC
:100DD0001706E807F907C0F012161306E407F5072F
:100DE00098F0621B730B840B950B39F40A2661F0A3
:100DF000232B242B252B21F408950A2609F4A14046
:100E0000A6958FEF811D811D08950E9418070C94EF
:100E100089070E947B0738F00E94820720F0952303
:100E200011F00C9472070C94780711240C94BD07F0
:100E30000E949A0770F3959FC1F3950F50E0551FDC
:100E4000629FF001729FBB27F00DB11D639FAA271F
:100E5000F00DB11DAA1F649F6627B00DA11D661F6E
:100E6000829F2227B00DA11D621F739FB00DA11D8F
:100E7000621F839FA00D611D221F749F3327A00D49
:100E8000611D231F849F600D211D822F762F6A2FE5
:100E900011249F5750409AF0F1F088234AF0EE0F4A
:100EA000FF1FBB1F661F771F881F91505040A9F777
:100EB0009E3F510580F00C9472070C94BD075F3F74
:100EC000E4F3983ED4F3869577956795B795F795B3
:100ED000E7959F5FC1F7FE2B880F911D969587952B
:100EE00097F9089597F99F6780E870E060E00895AA
:100EF0009FEF80EC089500240A9416161706180632
:100F00000906089500240A9412161306140605060D
:100F10000895092E0394000C11F4882352F0BB0F9E
:100F200040F4BF2B11F460FF04C06F5F7F4F8F4F01
:100F30009F4F089557FD9058440F551F59F05F3F3C
:100F400071F04795880F97FB991F61F09F3F79F0EB
:100F500087950895121613061406551FF2CF46956D
:100F6000F1DF08C0161617061806991FF1CF8695EF
:100F70007105610508940895E894BB2766277727D3
:100F8000CB0197F908952F923F924F925F926F9203
:100F90007F928F929F92AF92BF92CF92DF92EF9209
:100FA000FF920F931F93CF93DF93CDB7DEB7CA1B8A
:100FB000DB0B0FB6F894DEBF0FBECDBF09942A88B5
:100FC000398848885F846E847D848C849B84AA845D
:100FD000B984C884DF80EE80FD800C811B81AA81EA
:100FE000B981CE0FD11D0FB6F894DEBF0FBECDBFB5
:100FF000ED0108955058BB27AA270E9412080C94AF
:1010000089070E947B0738F00E94820720F039F49C
:101010009F3F19F426F40C9478070EF4E095E7FB53
:101020000C947207E92F0E949A0758F3BA176207C7
:1010300073078407950720F079F4A6F50C94BC0794
:101040000EF4E0950B2EBA2FA02D0B01B9019001E3
:101050000C01CA01A0011124FF27591B99F0593F27
:1010600050F4503E68F11A16F040A22F232F342F6F
:101070004427585FF3CF469537952795A795F040BD
:101080005395C9F77EF41F16BA0B620B730B840BD2
:10109000BAF09150A1F0FF0FBB1F661F771F881F8A
:1010A000C2F70EC0BA0F621F731F841F48F48795E2
:1010B00077956795B795F7959E3F08F0B0CF9395D4
:1010C000880F08F09927EE0F9795879508950E944D
:1010D0006E086894B1110C94BD0708950E94A20790
:1010E00088F09F5798F0B92F9927B751B0F0E1F0E9
:1010F000660F771F881F991F1AF0BA95C9F714C099
:10110000B13091F00E94BC07B1E008950C94BC0787
:10111000672F782F8827B85F39F0B93FCCF38695D1
:1011200077956795B395D9F73EF49095809570952E
:1011300061957F4F8F4F9F4F08950E94E10608F4FD
:101140008FEF089597FB072E16F4009407D077FDD4
:1011500009D00E94D80807FC05D03EF490958195EF
:101160009F4F0895709561957F4F0895A1E21A2EC3
:10117000AA1BBB1BFD010DC0AA1FBB1FEE1FFF1F3B
:10118000A217B307E407F50720F0A21BB30BE40B8B
:10119000F50B661F771F881F991F1A9469F76095D2
:1011A0007095809590959B01AC01BD01CF0108958C
:1011B000AA1BBB1B51E107C0AA1FBB1FA617B7077D
:1011C00010F0A61BB70B881F991F5A95A9F7809599
:1011D0009095BC01CD010895EE0FFF1F0590F4918D
:1011E000E02D09940F931F93CF93DF9382309105E5
:1011F00010F482E090E0E0915402F091550230E06A
:1012000020E0B0E0A0E0309799F42115310509F411
:101210004AC0281B390B24303105D8F58A819B81BF
:101220006115710589F1FB0193838283FE0111C071
:10123000408151810281138148175907E0F0481716
:10124000590799F4109761F012960C931297139620
:101250001C933296CF01DF91CF911F910F9108958A
:101260000093540210935502F4CF2115310551F02B
:101270004217530738F0A901DB019A01BD01DF01D4
:10128000F801C1CFEF01F9CF90935502809354023A
:10129000CDCFFE01E20FF31F8193919322503109CC
:1012A00039832883D7CF2091520230915302232BC8
:1012B00041F42091020130910301309353022093B5
:1012C000520220910001309101012115310541F4B4
:1012D0002DB73EB74091040150910501241B350BF9
:1012E000E0915202F0915302E217F307A0F42E1B93
:1012F0003F0B2817390778F0AC014E5F5F4F24177A
:10130000350748F04E0F5F1F50935302409352022F
:10131000819391939FCFF0E0E0E09CCFCF93DF9358
:101320000097E9F0FC01329713821282A0915402D7
:10133000B0915502ED0130E020E01097A1F420813A
:101340003181820F931F209152023091530228174E
:10135000390709F061C0F0935302E0935202DF9124
:10136000CF910895EA01CE17DF07E8F54A815B8146
:101370009E0141155105B1F7E901FB83EA834991CB
:101380005991C40FD51FEC17FD0761F4808191813D
:101390000296840F951FE901998388838281938146
:1013A0009B838A83F0E0E0E012968D919C911397E5
:1013B0000097B9F52D913C911197CD010296820FBE
:1013C000931F20915202309153022817390739F6A2
:1013D000309751F51092550210925402B093530277
:1013E000A0935202BCCFD383C28340815181840F2A
:1013F000951FC817D90761F44E5F5F4F88819981A7
:10140000480F591F518340838A819B819383828334
:101410002115310509F0B0CFF0935502E093540245
:101420009ECFFD01DC01C0CF13821282D7CFB0E086
:10143000A0E0EDE1FAE00C94C5078C01009751F4AF
:10144000CB010E94F2088C01C801CDB7DEB7E0E104
:101450000C94E107FC01E60FF71F9C0122503109B3
:10146000E217F30708F49DC0D901CD91DC911197E3
:10147000C617D70798F0C530D10530F3CE010497D1
:101480008617970708F3C61BD70B2297C193D193F2
:101490006D937C93CF010E948E09D6CF5B01AC1A6D
:1014A000BD0A4C018C0E9D1EA0915402B0915502B4
:1014B000512C412CF12CE12C109731F580915202E6
:1014C000909153028815990509F05CC0461657069D
:1014D00008F058C08091000190910101009741F4FB
:1014E0008DB79EB74091040150910501841B950B67
:1014F000E817F90708F055C0F0935302E093520241
:10150000F90171836083A0CF8D919C911197129600
:101510006C90129713967C901397A815B90559F5FE
:101520006C0142E0C40ED11CCA14DB0420F1AC01F2
:101530004A195B09DA011296159780F0628273826C
:1015400051834083D9016D937C93E114F10471F0D0
:10155000D7011396FC93EE93129776CF22968C0FB9
:101560009D1FF90191838083F301EFCFF093550222
:10157000E093540269CF4816590608F42C017D0106
:10158000D3019ACFCB010E94F2087C01009749F069
:10159000AE01B8010E94D40AC8010E948E098701D9
:1015A00053CF10E000E050CFFB01DC0102C00190FE
:1015B0000D9241505040D8F70895FB01DC018D9108
:1015C000019080190110D9F3990B0895FB01DC01FA
:1015D00001900D920020E1F7089510E0C2E6D0E0FE
:1015E00004C0FE010E94EC082196C336D107C9F75A
:0415F000F894FFCF9D
:1015F400000056028000000000004C01AC00D9003D
:1016040099010A01E800FC000D0A00706C61796917
:101614006E67007365747570006E6578744C6564EC
:1016240000627574746F6E507265737365640077CD
:10163400696E21006C6F6F7365210070617573654D
:101644000077616974696E6700636F6E74696E75A3
:08165400652067616D6500006F
:00000001FF
